:060000000A128A110C280F
:10000800FE00030EF1000A08F2000A128A112128E4
:100018000A128A110F28F701F801F901FA0183126F
:100028000313A001A101A201A301A401A501A60136
:10003800A70183010A128A118028831203138C1DD9
:100048002628272879281412141B2B282C28302816
:10005800941F2F28302837281308F0007008FA005A
:1000680014139413141683160313941A3C283D286A
:1000780055281419402841285528831203131308BA
:10008800F0007008FA008C11141683160313141C60
:100098004E284F284928A630F000F00B51280000C0
:1000A8007628941A582859287628141D5C285D2823
:1000B8007628831203131308F0007008FA008316D9
:1000C8000313141077088312031393001416A63031
:1000D800F000F00B6D280000831603131418752820
:1000E80076287028831203138C1172088A00710E07
:1000F8008300FE0E7E0E09000A128A1107210A12D9
:100108008A110A128A1128210A128A110A128A11DE
:100118005F210A128A110A128A11DB200A128A1137
:1001280083120313A8002808F9000A128A11DB2099
:100138000A128A1183120313A8002808A7000A12BA
:100148008A11DB200A128A1183120313A8002808D7
:10015800F8000A128A11DB200A128A11831203138B
:10016800A8002808A6000A128A11DB200A128A11A0
:1001780083120313A8002808A4007808A8002808F8
:10018800F7007908A8002808A5000B30831203138C
:10019800AA002630A9005D30A800A80BD128A90B19
:1001A800D128AA0BD12885280A128A110C28F60111
:1001B800F50183120313051CE228E328DD28133018
:1001C800F300F30BE528E82883120313051CED2838
:1001D800EE28F1280314F60DF7287608F3007307C4
:1001E800F4007408F6000518FA28FB28F7280130EF
:1001F800F3007308F50708307502031C0429052964
:10020800DD28760808008316031385018601870117
:1002180088018901831203138901850186018701F9
:1002280088018316031788018901831603130F17A2
:100238008F160F160F148B170B1780300A128A119E
:1002480045210A128A11080002308316031385001B
:100258008312031305102F30F400BF30F300F30BA3
:100268003329F40B33293829831203130514133067
:10027800F300F30B3D29402903308316031385004F
:100288000800F300730883160313930036308312B3
:1002980003139400803083160313940001309100F7
:1002A800871507168B170B17831203138C118316E8
:1002B80003138C1508008312031305186429652994
:1002C8005F29051C68296929652905186C296D2984
:0402D8006929080088
:04400E00D420FF3F7C
:00000001FF
