:100000000A128A11EE2F00308A000408840A82073F
:1000100000342034533431343A3420342034203402
:10002000533432343A34203420342034533433348B
:100030003A3400342534203420342034003443341E
:100040002034203400343034303430340034B03490
:0200500000347A
:10088600F000700883120313880008008316031310
:1008960081128111011581140114D93083120313B9
:1008A6008100080000300A128A1171240A128A1186
:1008B60001300A128A1171240A128A110800831261
:1008C60003130518672C682C622C051C6B2C6C2CEA
:1008D600682C05186F2C702C6C2C0800F300831202
:1008E6000313091073080A128A1143240A128A1183
:1008F6008312031389140B30F2006230F100F10BFE
:10090600822CF20B822C000083120313891008003C
:1009160002308316031385008312031305102F304C
:10092600F100BF30F000F00B962CF10B962C9B2CAF
:100936008312031305141330F000F00BA02CA32C24
:1009460003308316031385000800F2007208F100D5
:100956007108F3007308F1007108F40083120313A1
:10096600091474080A128A1143240A128A1183127E
:10097600031389141A30F100F10BBF2C0000831207
:10098600031389100800F700F501F601DD2C750840
:10099600770784000A128A1103200A128A110A12A2
:1009A6008A11A8240A128A110130F5070318F60ADB
:1009B6000030F6077508770784000A128A110320AB
:1009C6000A128A11003A031DE92CEA2CCA2C0800E7
:1009D6000230831603138500860187018801890189
:1009E600831203138901850186018701880102307C
:1009F6008316031788008901831603130F178F16B2
:100A06000F160F148B170B178B160B118B150B105C
:100A1600603096008113603095000800F301F20102
:100A260083120313051C182D192D132D1330F000F6
:100A3600F00B1B2D1E2D83120313051C232D242DB5
:100A4600272D0314F30D2D2D7308F0007007F10008
:100A56007108F3000518302D312D2D2D0130F000D1
:100A66007008F20708307202031C3A2D3B2D132D35
:100A76007308080000300A128A1143240A128A11E8
:100A86003430F500F130F400F40B472DF50B472D0B
:100A96004C2D30300A128A1171240A128A110D3037
:100AA600F500FB30F400F40B562DF50B562D5B2D9F
:100AB60030300A128A1171240A128A118530F40024
:100AC600F40B632D30300A128A1171240A128A112E
:100AD6003C300A128A1171240A128A1108300A124D
:100AE6008A1171240A128A1101300A128A1171249C
:100AF6000A128A1106300A128A1171240A128A1100
:100B06000800F7007703031D892D8A2DAD2D740883
:100B16007F3EF5007508FA007A08F50004300310E8
:100B2600F50CFF3E031D922D7508F6007608F800B9
:100B36007A080F39F5007508F90078080A128A1143
:100B460071240A128A1179080A128A1171240A126A
:100B56008A11D52D02307706031DB22DB32DD52D62
:100B66007408BF3EF5007508FA007A08F5000430EF
:100B76000310F50CFF3E031DBB2D7508F600760825
:100B8600F8007A08F039F5007508F90078080A12B5
:100B96008A1171240A128A1179080A128A1171249B
:100BA6000A128A11080083120313AD01FC1FDC2D03
:100BB600DD2DE42DFB09FC09FB0A0319FC0AAD0136
:100BC600AD0AFA1FE72DE82DED2DF909FA09F90A04
:100BD6000319FA0A79087A040319F22DF32D222E45
:100BE600AC01AC0A012E01300310F90DFA0DFF3EDF
:100BF600031DF72D0130FD007D08AC07FA1F042EFA
:100C0600052EF62D7A087C02031D0B2E79087B0231
:100C1600031C0E2E0F2E152E7908FB027A08031CD4
:100C2600FC03FC0201300310FA0CF90CFF3E031D15
:100C3600162E0130AC02031D212E222E052E2D0864
:100C46000319262E272E2C2EFB09FC09FB0A031955
:100C5600FC0A7C08FA007B08F9000800F601F11F7F
:100C6600352E362E3D2EF009F109F00A0319F10A48
:100C7600F601F60AF31F402E412E4A2EF209F30919
:100C8600F20A0319F30A0130F4007408F606F701B4
:100C9600F801700871040319512E522E892EF501A0
:100CA600F50A602E01300310F00DF10DFF3E031D15
:100CB600562E0130F4007408F507F11F632E642EDA
:100CC600552E01300310F70DF80DFF3E031D652E5E
:100CD60071087302031D712E70087202031C742EB4
:100CE600752E7C2E7008F2027108031CF303F302C2
:100CF600771401300310F10CF00CFF3E031D7D2E1E
:100D06000130F502031D882E892E642E76080319FC
:100D16008D2E8E2E932EF709F809F70A0319F80A75
:100D26007808F1007708F00008000A128A11EB240F
:100D36000A128A110A128A1149240A128A110A12FF
:100D46008A113D250A128A110A128A1155240A129D
:100D56008A11F401F40A01300A128A1184250A1252
:100D66008A1101300A128A11C6240A128A110A123D
:100D76008A118B240A128A110A128A1162240A1213
:100D86008A110A128A1111250A128A118312031373
:100D9600AE002E08A9000A128A1111250A128A111C
:100DA60083120313AE002E08AA000A128A11112517
:100DB6000A128A1183120313AE002E08A7000A1224
:100DC6008A1111250A128A1183120313AE002E0806
:100DD600A8000A128A1111250A128A118312031316
:100DE600AE002E08A40029082A07AE00AF01AF0DF9
:100DF60027082E07B0000030031801302F07B10076
:100E060028083007B2000030031801303107B3005C
:100E1600FF303205B40000303305B5002408B600B3
:100E2600B70135083706031D1A2F34083606031D89
:100E36001D2F1E2F222F2708AE002E08A5002908D9
:100E4600AE002E08A600F401F40A02300A128A1136
:100E560084250A128A110A30F9000030FA000A3095
:100E6600F0000030F100831203132608AE00AF0134
:100E76002E08F2002F08F3000A128A1131260A12F0
:100E86008A117108FC007008FB000A128A11D62527
:100E96000A128A117908303E83120313B000300813
:100EA600A3000A30F9000030FA002608AE00AF01B0
:100EB6002E08FB002F08FC000A128A11D6250A12FA
:100EC6008A117908303E83120313B0003008A2005D
:100ED6000A30F9000030FA000A30F0000030F10064
:100EE6002508AE00AF012E08F2002F08F3000A1203
:100EF6008A1131260A128A117108FC007008FB005B
:100F06000A128A11D6250A128A117908303E8312EE
:100F16000313B0003008A1000A30F9000030FA00CF
:100F26002508AE00AF012E08FB002F08FC000A12B0
:100F36008A11D6250A128A117908303E83120313C4
:100F4600B0003008A00023080A128A11A8240A1249
:100F56008A118312031322080A128A11A8240A127C
:100F66008A1112300A128A11C6240A128A118312B1
:100F7600031321080A128A11A8240A128A1183125D
:100F8600031320080A128A11A8240A128A111F3094
:100F96000A128A11A8240A128A1117300A128A1113
:100FA600C6240A128A111B300A128A11C6240A1292
:100FB6008A110B3083120313B0002630AF005D3068
:100FC600AE00AE0BE42FAF0BE42FB00BE42FBA2E1E
:100FD6000A128A11002883120313A001A101A2019B
:100FE600A301A401A501A601A701A801A901AA01BF
:0A0FF600AB0183010A128A11982E44
:04400E00D420FF3F7C
:00000001FF
