:060000000A128A110C280F
:10000800FE00030EF1000A08F2000A128A112228E3
:100018000A128A110F28F701F801F901FA0183126F
:100028000313A001A101A201A301A401A501A60136
:10003800A701A80183010A128A11942883120313C5
:100048008C1D272828288D281412141B2C282D28AD
:100058003128941F3028312838281308F0007008F8
:10006800A80014139413141683160313941A3D2826
:100078003E2856281419412842285628831203136B
:100088001308F0007008A8008C11141683160313C7
:10009800141C4F2850284A28A630F000F00B52288C
:1000A80000008A28941A59285A288A28141D5D287D
:1000B8005E288A28831203131308F0007008A8002A
:1000C8008316031314107A08031D6B286C287328F1
:1000D8008312031325089300FA01FA0A7D287A038C
:1000E800031D772878287D28770883120313930047
:1000F800FA0183121416A630F000F00B81280000D4
:1001080083160313141889288A2884288312031352
:100118008C1172088A00710E8300FE0E7E0E090093
:100128000A128A111B210A128A110A128A113C2109
:100138000A128A110A128A1173210A128A110A12E2
:100148008A11EF200A128A1183120313A9002908C1
:10015800F9000A128A11EF200A128A118312031376
:10016800A9002908A7000A128A11EF200A128A1189
:1001780083120313A9002908F8000A128A11EF2034
:100188000A128A1183120313A9002908A6000A1269
:100198008A11EF200A128A1183120313A900290871
:1001A800A4007808A9002908A5007908A900290849
:1001B800F7000B3083120313AB002630AA005D3022
:1001C800A900A90BE528AA0BE528AB0BE528992877
:1001D8000A128A110C28F601F50183120313051C73
:1001E800F628F728F1281330F300F30BF928FC2838
:1001F80083120313051C0129022905290314F60D8E
:100208000B297608F3007307F4007408F600051844
:100218000E290F290B290130F3007308F507083060
:100228007502031C18291929F12876080800831675
:10023800031385018601870188018901831203134D
:1002480089018501860187018801831603178801C2
:100258008901831603130F178F160F160F148B17A8
:100268000B1780300A128A1159210A128A110800C4
:1002780002308316031385008312031305102F30F1
:10028800F400BF30F300F30B4729F40B47294C293E
:100298008312031305141330F300F30B5129542967
:1002A80003308316031385000800F30073088316D0
:1002B800031393003630831203139400803083169F
:1002C8000313940001309100871507168B170B173D
:1002D800831203138C11831603138C1508008312E1
:1002E80003130518782979297329051C7C297D2988
:0C02F80079290518802981297D2908003A
:04400E00D420FF3F7C
:00000001FF
