:020000040000FA
:060000000A128A11FC2F18
:100AA000831203138501831603130514831603179A
:100AB000880108000030FC000030FB000030FA0024
:100AC0000030F900701C652D662D7D2D7408F90726
:100AD000750803110318013E03196F2DFA077608F4
:100AE00003110318013E0319762DFB077708031144
:100AF0000318013E03197D2DFC070130F800031097
:100B0000F40DF50DF60DF70DF80B7F2D01300310E8
:100B1000F30CF20CF10CF00CFF3E031D872D730853
:100B2000720471047004031D962D972D622D7C08AC
:100B3000F3007B08F2007A08F1007908F000080061
:100B40000030FC000030FB000030FA000030F900FB
:100B500073087204710470040319AF2DB02DFD2DBC
:100B6000FD01FD0AC02D0130F8000310F00DF10D5C
:100B7000F20DF30DF80BB52D0130FF007F08FD07D6
:100B8000F31FC32DC42DB32D0130F8000310F90D50
:100B9000FA0DFB0DFC0DF80BC62D73087702031D33
:100BA000DB2D72087602031DDB2D71087502031D13
:100BB000DB2D70087402031CDE2DDF2DEE2D700876
:100BC000F4027108031C710FF5027208031C720F06
:100BD000F6027308031C730FF70279140130031037
:100BE000F30CF20CF10CF00CFF3E031DEF2D013065
:100BF000FD02031DFC2DFD2DC42D7C08F3007B0898
:100C0000F2007A08F1007908F000080073308316CA
:100C100003138F000A128A1150250A128A118312B7
:100C200003130518142E152E0F2E82308312031372
:100C3000B500DD30B400B40B1B2EB50B1B2E831298
:100C40000313051C242E252E0F2EB701B801831285
:100C500003133808A1003708A0003230A20000308A
:100C6000A3000A128A11AB260A128A111A308312C3
:100C70000313B500F730B400B40B3C2EB50B3C2E7B
:100C8000412E013083120313B7070318B80A00304E
:100C9000B8073808803AFF0080307F02031D522ECB
:100CA00064303702031C552E562E272E3330831204
:100CB0000313B600BB30B500DF30B400B40B5E2EBA
:100CC000B50B5E2EB60B5E2E643083120313B90093
:100CD0000030BA00831203133A08A1003908A000BB
:100CE0003230A2000030A3000A128A11AB260A1289
:100CF0008A111A3083120313B500F730B400B40B15
:100D00007F2EB50B7F2E842EFF3083120313B9077D
:100D10000318BA0AFF30BA073A08803AFF00803059
:100D20007F02031D952E013039020318982E992E4B
:100D30006A2E0B3083120313B6002630B5005D30E7
:100D4000B400B40BA12EB50BA12EB60BA12E0F2E05
:100D50000A128A1100288316031307110130831227
:100D60000313A8000030A9000030AF007A30AE00B5
:100D70001230AD000030AC002208F0002308F10072
:100D8000F201F3012F08F7002E08F6002D08F500F8
:100D90002C08F4000A128A11A0250A128A1173087D
:100DA00083120313AF007208AE007108AD00700823
:100DB000AC002C08A4002D08A5002E08A6002F08C2
:100DC000A70002300310A70CA60CA50CA40CFF3E34
:100DD000031DE22E2708AF002608AE002508AD004F
:100DE0002408AC0092011F2F2908A5002808A400A0
:100DF0000310A40DA50D0310A40DA50D2408A80033
:100E00002508A9000130FF007F0892072C08A400E4
:100E10002D08A5002E08A6002F08A70002300310F9
:100E2000A70CA60CA50CA40CFF3E031D0F2F270832
:100E3000AF002608AE002508AD002408AC002F083E
:100E4000031D302F2E08031D302F01302D02031DEE
:100E50002D2F01302C02031D2D2F0318302F312F81
:100E6000F42E0130A4000030A5000030A6000030B0
:100E7000A7002408AC022508031C250F402F412F92
:100E8000AD022608031C260F462F472FAE02270867
:100E9000031C270F4C2F4D2FAF022C088316031372
:100EA0009200831203132F08B3002E08B2002D08FE
:100EB000B1002C08B0000130B00700300318013039
:100EC000B107003003180130B207003003180130B9
:100ED000B3072008F0002108F100F201F301330804
:100EE000F7003208F6003108F5003008F4000A1265
:100EF0008A115A250A128A11730883120313B30048
:100F00007208B2007108B1007008B0003008A40087
:100F10003108A5003208A6003308A70002300310EC
:100F2000A40DA50DA60DA70DFF3E031D8F2F2708AD
:100F3000B3002608B2002508B1002408B000003034
:100F4000F3000030F2000030F1006430F0003308AC
:100F5000F7003208F6003108F5003008F4000A12F4
:100F60008A11A0250A128A11730883120313B30091
:100F70007208B2007108B1007008B0003108AB000F
:100F80003008AA0003302A05AA0000302B05AB0068
:100F90002B08A5002A08A400A40EA50EF030A50574
:100FA00024080F39A504F030A4052408AA00250858
:100FB000AB000C30970017082A0497003008A400F3
:100FC0003108A5003208A6003308A700023003103C
:100FD000A70CA60CA50CA40CFF3E031DE72F2708A9
:100FE000B3002608B2002508B1002408B00030087C
:100FF000950012159101080083010A128A11062E2C
:04400E00F420FF3F5C
:00000001FF
