:060000000A128A110C280F
:10000800FE00030EF2000A08F3000A128A11742A8D
:100018000A128A110F2883120313AC01AD01AE0135
:10002800AF01B00183010A128A118E2883120313CB
:100038002408A8002308A7006430F4000030F50065
:100048002808F7002708F6000A128A1187210A12E1
:100058008A11740883120313A5002508B00030081C
:10006800A500A6012508F4002608F5009C30F60036
:10007800FF30F7000A128A1131220A128A118312FC
:10008800031327087407A70028080318280A750708
:10009800A8000A30F4000030F5002808F700270807
:1000A800F6000A128A1187210A128A11740883122B
:1000B8000313A5002508AF002F08A500A6012508F1
:1000C800F4002608F500F630F600FF30F7000A12B3
:1000D8008A1131220A128A1183120313270874071E
:1000E800A70028080318280A7507A8002708A500EC
:1000F8002508AE003008303EA5002508B0002F08BE
:10010800303EA5002508AF002E08303EA500250882
:10011800AE0008000A128A11CD210A128A110A12A9
:100128008A1140210A128A110A128A11C2220A125D
:100138008A11F801F80A01300A128A11E8200A1215
:100148008A1101300A128A1108220A128A118312AE
:1001580003132D08A4002C08A3000A128A111A20E0
:100168000A128A11F801F80A02300A128A11E820E4
:100178000A128A118312031330080A128A115622AE
:100188000A128A11831203132F080A128A1156229F
:100198000A128A11831203132E080A128A11562290
:1001A8000A128A11063083120313AB001330AA0017
:1001B800AD30A900A90BDE28AA0BDE28AB0BDE2880
:1001C800AB280A128A110C2883120313A2002203F7
:1001D800031DEF28F028152978087F3EA000200885
:1001E800A5002508A00004300310A00CFF3E031D45
:1001F800F8282008A1002108A30025080F39A0002D
:100208002008A40023080A128A1191220A128A11CE
:100218008312031324080A128A1191220A128A11DE
:100228003F2902302206031D1A291B293F29780875
:10023800BF3EA0002008A5002508A0000430031038
:10024800A00CFF3E031D23292008A1002108A300BC
:100258002508F039A0002008A40023080A128A11F2
:1002680091220A128A118312031324080A128A118E
:1002780091220A128A11080000300A128A11CF222C
:100288000A128A113430F900F130F800F80B4A29C3
:10029800F90B4A294F2930300A128A1191220A1281
:1002A8008A110D30F900FB30F800F80B5929F90BC9
:1002B80059295E2930300A128A1191220A128A11AC
:1002C8008530F800F80B662930300A128A1191221D
:1002D8000A128A113C300A128A1191220A128A11D2
:1002E80008300A128A1191220A128A1101300A1260
:1002F8008A1191220A128A1106300A128A11912251
:100308000A128A11080083120313A001A1017408BC
:100318007504031990299129C829A201A20A9F29C5
:1003280001300310F40DF50DFF3E031D9529013032
:10033800F8007808A207F51FA229A32994290130FB
:100348000310A00DA10DFF3E031DA4297508770217
:10035800031DB02974087602031CB329B429BB29EC
:100368007408F6027508031CF703F702201401301D
:100378000310F50CF40CFF3E031DBC290130A2024A
:10038800031DC729C829A3292108F5002008F4005E
:100398000800013083160313850086018701880150
:1003A8008901831203138901850186018701880168
:1003B80001308316031788008901831603130F176A
:1003C8008F160F160F149F131F129F1283120313F9
:1003D8001F083F3980389F00C3309F051F14213004
:1003E800F400F40BF529831203139F148B170B17D2
:1003F8008B160B118B150B106030831603139600A8
:10040800811360309500080083120313A200A00135
:10041800A101232A2008220784000A128A11AB228C
:100428000A128A110A128A1156220A128A110130F6
:1004380083120313A0070318A10A0030A10720089C
:10044800220784000A128A11AB220A128A11003A82
:10045800031D2F2A302A0E2A0800F801F901741CFE
:10046800362A372A3D2A7608F8070318F90A770842
:10047800F90701300310F60DF70DFF3E031D3E2A64
:1004880001300310F50CF40CFF3E031D452A7408D7
:100498007504031D502A512A332A7908F500780873
:1004A800F4000800F6007608F5007508F7007708EC
:1004B800F5007508F80083120313091478080A1266
:1004C8008A11CF220A128A118312031389141A304F
:1004D800F500F50B6D2A000083120313891008003C
:1004E800831203130C1F792A7A2A8A2A1E08F0001D
:1004F800F1017008AC007108AD000C132730F00052
:10050800F00B842A872A831203139F1473088A0026
:10051800720E8300FE0E7E0E0900F700831203138D
:10052800091077080A128A11CF220A128A11831237
:10053800031389140B30F6006230F500F50BA22A7C
:10054800F60BA22A00008312031389100800023058
:100558008A000408840A8207003420345334313472
:100568003A34203420342034533432343A3420346A
:1005780020342034533433343A34003400300A12EF
:100588008A1191220A128A1101300A128A119122C3
:100598000A128A110800F4007408831203138800F1
:0205A800080049
:04400E00D420FF3F7C
:00000001FF
