:060000000A128A110C280F
:10000800FE00030EF2000A08F3000A128A1177298B
:100018000A128A110F28F801F9018313203084008D
:1000280038300A128A11D1210A128A1183010A1260
:100038008A11C22883120313BB003B03031D252822
:1000480026284B2838087F3EB9003908BE003E08EC
:10005800B90004300310B90CFF3E031D2E283908DF
:10006800BA003A08BC003E080F39B9003908BD008B
:100078003C080A128A1193210A128A118312031367
:100088003D080A128A1193210A128A117528023032
:100098003B06031D5028512875283808BF3EB90073
:1000A8003908BE003E08B90004300310B90CFF3E01
:1000B800031D59283908BA003A08BC003E08F0392F
:1000C800B9003908BD003C080A128A1193210A12A6
:1000D8008A11831203133D080A128A1193210A1206
:1000E8008A11080000300A128A11D9210A128A11CD
:1000F800343083120313B900F130B800B80B8228EA
:10010800B90B822830300A128A1193210A128A11F7
:100118000D3083120313B900FB30B800B80B9228D6
:10012800B90B922830300A128A1193210A128A11C7
:10013800843083120313B800B80BA02800003030B5
:100148000A128A1193210A128A113C300A128A1162
:1001580093210A128A1108300A128A1193210A126D
:100168008A1101300A128A1193210A128A11063063
:100178000A128A1193210A128A1108000A128A1196
:1001880000210A128A110A128A1176200A128A118B
:100198000A128A11C4210A128A1183120313B801A0
:1001A800B80A01300A128A111E200A128A11013077
:1001B8000A128A1130210A128A11831203139F141A
:1001C80083120313B801B80A02300A128A111E20DA
:1001D8000A128A11063083120313C1001330C000BB
:1001E800AD30BF00BF0BF628C00BF628C10BF628B0
:1001F800E4280A128A110C2801308316031385009B
:100208008601870188018901831203138901850109
:100218008601870188010130831603178800890148
:10022800831603130F178F160F160F149F131F1221
:100238009F12831203131F083F3980389F00C33071
:100248009F051F142130F400F40B2829831203138F
:100258009F148B170B17080083120313BB00BC01F4
:10026800BD014B293C083B0784000A128A11AD21C5
:100278000A128A110A128A1159210A128A110130A6
:1002880083120313BC070318BD0A0030BD073C08DE
:100298003B0784000A128A11AD210A128A11003A1A
:1002A800031D572958293629080083120313B8005B
:1002B8003808F5007508B9003908F5007508BA005E
:1002C80009143A080A128A11D9210A128A118312CA
:1002D800031389141A30F500F50B702900008312F6
:1002E800031389100800831203130C1F7C297D292E
:1002F8008C291E08F000F1017008F8007108F90057
:100308000C132130F000F00B8729831203139F147C
:1003180073088A00720E8300FE0E7E0E0900F70035
:1003280083120313091077080A128A11D9210A12B5
:100338008A118312031389140B30F6006230F5001A
:10034800F50BA429F60BA4290000831203138910C6
:10035800080001308A000408840A82070034203427
:10036800533431343A342034203420345334323442
:100378003A34203420342034533433343A3400347B
:1003880000300A128A1193210A128A1101300A12C6
:100398008A1193210A128A11080064008001840AD4
:1003A8000406031900340406D229F40074088312E1
:0603B80003138800080099
:04400E00D420FF3F7C
:00000001FF
