:060000000A128A110C280F
:10000800FE00030EF2000A08F3000A128A115E2AA3
:100018000A128A110F2883120313A901AA01AB013E
:10002800AC01AD0183010A128A11E6288312031379
:100038002408A8002308A7006430F4000030F50065
:100048002808F7002708F6000A128A117C210A12EC
:100058008A11740883120313A5002508AD002D0822
:10006800A500A6012508F4002608F5009C30F60036
:10007800FF30F7000A128A111B220A128A11831212
:10008800031327087407A70028080318280A750708
:10009800A8000A30F4000030F5002808F700270807
:1000A800F6000A128A117C210A128A117408831236
:1000B8000313A5002508AC002C08A500A6012508F7
:1000C800F4002608F500F630F600FF30F7000A12B3
:1000D8008A111B220A128A11831203132708740734
:1000E800A70028080318280A7507A8002708A500EC
:1000F8002508AB002D08303EA5002508AD002C08CA
:10010800303EA5002508AC002B08303EA500250888
:10011800AB00080083120313A2002203031D9528D5
:100128009628BB2878087F3EA0002008A50025084F
:10013800A00004300310A00CFF3E031D9E282008D9
:10014800A1002108A30025080F39A0002008A40059
:1001580023080A128A117A220A128A1183120313B7
:1001680024080A128A117A220A128A11E528023012
:100178002206031DC028C128E5287808BF3EA00034
:100188002008A5002508A00004300310A00CFF3E9D
:10019800031DC9282008A1002108A3002508F0395B
:1001A800A0002008A40023080A128A117A220A1241
:1001B8008A118312031324080A128A117A220A1256
:1001C8008A1108000A128A11C2210A128A110A1217
:1001D8008A1135210A128A110A128A11AB220A12CF
:1001E8008A11F801F80A01300A128A118E200A12BF
:1001F8008A1101300A128A11F2210A128A11831215
:1002080003139F14831203132A08A4002908A300C8
:100218000A128A111A200A128A11F801F80A023001
:100228000A128A118E200A128A11831203132D08CA
:100238000A128A1140220A128A11831203132C0807
:100248000A128A1140220A128A11831203132B08F8
:100258000A128A1140220A128A1106290A128A11E0
:100268000C2800300A128A11B8220A128A11343076
:10027800F900F130F800F80B3F29F90B3F29442920
:1002880030300A128A117A220A128A110D30F900C6
:10029800FB30F800F80B4E29F90B4E295329303062
:1002A8000A128A117A220A128A118530F800F80B8C
:1002B8005B2930300A128A117A220A128A113C30DC
:1002C8000A128A117A220A128A1108300A128A112D
:1002D8007A220A128A1101300A128A117A220A1223
:1002E8008A1106300A128A117A220A128A11080023
:1002F80083120313A001A101740875040319852949
:100308008629BD29A201A20A942901300310F40DFF
:10031800F50DFF3E031D8A290130F8007808A20771
:10032800F51F97299829892901300310A00DA10DDF
:10033800FF3E031D992975087702031DA529740836
:100348007602031CA829A929B0297408F6027508A1
:10035800031CF703F702201401300310F50CF40C0A
:10036800FF3E031DB1290130A202031DBC29BD298E
:1003780098292108F5002008F400080001308316A8
:1003880003138500860187018801890183120313FD
:1003980089018501860187018801013083160317C9
:1003A80088008901831603130F178F160F160F1471
:1003B8009F131F129F12831203131F083F3980389F
:1003C8009F00C3309F051F142130F400F40BEA2965
:1003D800831203139F148B170B1708008312031340
:1003E800A200A001A1010D2A2008220784000A12F8
:1003F8008A1194220A128A110A128A1140220A12B8
:100408008A11013083120313A0070318A10A0030D0
:10041800A1072008220784000A128A1194220A12CE
:100428008A11003A031D192A1A2AF8290800F80126
:10043800F901741C202A212A272A7608F8070318AC
:10044800F90A7708F90701300310F60DF70DFF3E9A
:10045800031D282A01300310F50CF40CFF3E031D80
:100468002F2A74087504031D3A2A3B2A1D2A790885
:10047800F5007808F4000800F6007608F50075081D
:10048800F7007708F5007508F800831203130914BC
:1004980078080A128A11B8220A128A1183120313E1
:1004A80089141A30F500F50B572A0000831203133C
:1004B80089100800831203130C1F632A642A732A05
:1004C8001E08F000F1017008A9007108AA000C13B9
:1004D8002130F000F00B6E2A831203139F14730867
:1004E8008A00720E8300FE0E7E0E0900F70083124A
:1004F8000313091077080A128A11B8220A128A11FE
:100508008312031389140B30F6006230F500F50BE3
:100518008B2AF60B8B2A000083120313891008001C
:1005280002308A000408840A8207003420345334D5
:1005380031343A34203420342034533432343A3489
:10054800203420342034533433343A3400340030E7
:100558000A128A117A220A128A1101300A128A11A1
:100568007A220A128A110800F4007408831203130D
:0405780088000800EF
:04400E00D420FF3F7C
:00000001FF
