:060000000A128A110C280F
:10000800FE00030EF2000A08F3000A128A15F62A07
:100018000A128A110F28F601F701F801F901831273
:100028000313EA01EB01EC01ED01EE01EF0183138B
:10003800A0308400B0300A128A150A220A128A11E6
:1000480083010A128A15B22D8312031331088039ED
:10005800B6003608BB003108B6003607B7003708C7
:10006800C100B01F382839283A284114410803191B
:100078003E283F284E28410A031D432844284C287F
:100088000030B1000030B0000030AF000030AE00EA
:10009800B01756280030B1000030B0000030AF0073
:1000A8000030AE0035088039B6003608BB06350882
:1000B800B6003607B7003708BC00B41F64286528A7
:1000C80066283C143C0803196A286B287A283C0ADD
:1000D800031D6F28702878280030B5000030B40060
:1000E8000030B3000030B200B41782280030B500E9
:1000F8000030B4000030B3000030B2003C080319EF
:10010800862887288C284108031D8B288C28952849
:100118000030B1000030B0000030AF000030AE0059
:10012800882B2E08B6003608F40034080A128A15FF
:10013800CD220A128A11750883120313C7007408A6
:10014800C6004608B600B701B801B9013908C000B1
:100158003808BF003708BE003608BD004708B6009B
:10016800B701B801B9013908C5003808C400370813
:10017800C3003608C2002F08B6003608F40033085A
:100188000A128A15CD220A128A11750883120313DE
:10019800C7007408C6004608B600B701B801B9011F
:1001A8003608BD07370803110318013E0319DD2877
:1001B800BE07380803110318013E0319E428BF07D6
:1001C800390803110318013E0319EB28C007470833
:1001D800B600B701B801B9013608C20737080311DC
:1001E8000318013E0319F928C30738080311031837
:1001F800013E03190029C407390803110318013EF9
:1002080003190729C5073008B6003608F400320874
:100218000A128A15CD220A128A117508831203134D
:10022800C7007408C6004608B600B701B801B9018E
:100238003608BD07370803110318013E031925299D
:10024800BE07380803110318013E03192C29BF07FC
:10025800390803110318013E03193329C007470859
:10026800B600B701B801B9013608C207370803114B
:100278000318013E03194129C3073808031103185D
:10028800013E03194829C407390803110318013E20
:1002980003194F29C5070830B6000310BD0DBE0D60
:1002A800BF0DC00DB60B51292F08B6003608F40053
:1002B80032080A128A15CD220A128A117508831289
:1002C8000313C7007408C6004608B6004708B700FD
:1002D800B801B9013608BD07370803110318013EF4
:1002E80003197729BE07380803110318013E0319BB
:1002F8007E29BF07390803110318013E0319852910
:10030800C0072E08B6003608F40033080A128A150A
:10031800CD220A128A11750883120313C7007408C4
:10032800C6004608B6004708B700B801B901360844
:10033800BD07370803110318013E0319A429BE0796
:10034800380803110318013E0319AB29BF07390800
:1003580003110318013E0319B229C0070830B6007B
:100368000310BD0DBE0DBF0DC00DB60BB4292E0870
:10037800B6003608F40032080A128A15CD220A128D
:100388008A11750883120313C7007408C60046084B
:10039800B6004708B700B801B9013608BD073708E5
:1003A80003110318013E0319DA29BE07380803119F
:1003B8000318013E0319E129BF073908031103187F
:1003C800013E0319E829C0072F08B6003608F400D3
:1003D80034080A128A15CD220A128A117508831266
:1003E8000313C7007408C6004608B6004708B700DC
:1003F800B801B9013608C207370803110318013ECE
:100408000319072AC307380803110318013E031903
:100418000E2AC407390803110318013E0319152AC7
:10042800C5073008B6003608F40033080A128A15E2
:10043800CD220A128A11750883120313C7007408A3
:10044800C6004608B6004708B700B801B901360823
:10045800C207370803110318013E0319342AC307DA
:10046800380803110318013E03193B2AC407390849
:1004780003110318013E0319422AC5073008B600C4
:100488003608F40034080A128A15CD220A128A1195
:10049800750883120313C7007408C6004608B6001F
:1004A8004708B700B801B90108300310B60DB70DF9
:1004B800B80DB90DFF3E031D592A3608C207370883
:1004C80003110318013E03196A2AC30738080311E8
:1004D8000318013E0319712AC407390803110318C8
:1004E800013E0319782AC5073D08B6003E08B70043
:1004F8003F08B8004008B90018300310B90CB80C10
:10050800B70CB60CFF3E031D812A3608C207370810
:1005180003110318013E0319922AC307380803116F
:100528000318013E0319992AC4073908031103184F
:10053800013E0319A02AC5070830B6000310BD0DF7
:10054800BE0DBF0DC00DB60BA22A41083C07B60070
:10055800B701B70D3608823EC60037080318013EBA
:10056800FF3EC700D42A0130B6000310C20DC30DE8
:10057800C40DC50DB60BB92AC01FC32AC42AC52A83
:1005880042140130B6000310BD0DBE0DBF0DC00DE5
:10059800B60BC72AFF30C6070318C70AFF30C707BC
:1005A800C41FD72AD82AB72ABC01C01FDC2ADD2AD3
:1005B800F92AFF303D05B600FF303E05B700FF3091
:1005C8003F05B8007F304005B900390838043704C2
:1005D80036040319F02AF12AF42ABC01BC0AF92AC4
:1005E800421CF72AF82AF92AF12A3C080319FD2A9D
:1005F800FE2A2F2B0130C207003003180130C30731
:10060800003003180130C407003003180130C50753
:10061800451C0F2B102B2F2B4208B6004308B700A0
:100628004408B8004508B9000130BA00390DB90CC2
:10063800B80CB70CB60CBA0B1A2B3908C500380819
:10064800C4003708C3003608C2000130C6070318C3
:10065800C70A0030C7074708803AFF0080307F028A
:10066800031D382BFF304602031C3B2B3C2B472B2A
:100678007F3083120313C5008030C4000030C300EC
:100688000030C2007C2B831203134708803AFF0016
:1006980080307F02031D522B013046020318552B70
:1006A800562B622B003083120313C5000030C400A0
:1006B8000030C3000030C200BB017C2B831203133F
:1006C8004608B6003608C100FF30C205FF30C30532
:1006D8007F30C4050030C505411C732B742B752B66
:1006E800C4174108B6000310360CB7003708C50018
:1006F8003B08B6003608C5044508B1004408B000F8
:100708004308AF004208AE00080083120313230811
:100718008039A8002808B0002308A8002807A900E5
:100728002908B200A21F992B9A2B9B2B321432084E
:1007380003199F2BA02BB02B320A031DA42BA52B2A
:10074800AD2B0030A3000030A2000030A100003023
:10075800A000A217A301B82B0030A3000030A2000C
:100768000030A1000030A00027088039A800280820
:10077800B100310830060319C22BC32BC42B301724
:100788002708A8002807A9002908B100A61FCD2B13
:10079800CE2BCF2B311431080319D32BD42BE42BB8
:1007A800310A031DD82BD92BE12B0030A7000030CC
:1007B800A6000030A5000030A400A617A701EC2B66
:1007C8000030A7000030A6000030A5000030A400CB
:1007D800320831020318F12BF22B362C301FF52B7F
:1007E800F62BFA2B8030A8002808B0063208A8009B
:1007F8002808B3003108A8002808B2003308A80068
:100808002808B1002008A8002808B3002408A80078
:100818002808A0003308A8002808A4002108A80078
:100828002808B3002508A8002808A1003308A80054
:100838002808A5002208A8002808B3002608A80050
:100848002808A2003308A8002808A6002308A80042
:100858002808B3002708A8002808A3003308A80020
:100868002808A700B3013108A800A9012908AB008E
:1008780032082802AA00031CAB032B08803AFF00A9
:1008880080307F02031D4A2C1A302A02031C4D2C8B
:100898004E2C8B2C831203132308220421042004DA
:1008A800031D572C592C01305A2C0030A800280859
:1008B800B3000030A3000030A2000030A1000030D7
:1008C800A0003108A8002808B200932C331C6D2C16
:1008D8006E2C772C3308A8000310280C0138A900C7
:1008E8002908B300792C0310B30C201C7C2C7D2C18
:1008F8007E2CB3170130A800230DA30CA20CA10C69
:10090800A00CA80B802C0130A8002808B20783127D
:10091800031331083202031C922C932C6A2C301BCF
:10092800962C972CE22C3208031D9B2C9C2CA52C72
:100938000030A3000030A2000030A1000030A00069
:10094800102E2408A007250803110318013E0319D7
:10095800AE2CA107260803110318013E0319B52C74
:10096800A207270803110318013E0319BC2CA3078B
:10097800231CBF2CC02C962D331CC32CC42CCD2C6F
:100988003308A8000310280C0138A9002908B3006F
:10099800CF2C0310B30C201CD22CD32CD42CB3177F
:1009A8000130A800230DA30CA20CA10CA00CA80BCD
:1009B800D62C0130A8002808B207962D2308803AC3
:1009C800FF002708803A7F02031DF42C2608220224
:1009D800031DF42C25082102031DF42C24082002F1
:1009E8000318F72CF82C502DFF30A800FF30A90071
:1009F800FF30AA00FF30AB002408AC002508AD008A
:100A08002608AE002708AF002008AC022108031C06
:100A1800210F0F2D102DAD022208031C220F152DBA
:100A2800162DAE022308031C230F1B2D1C2DAF020D
:100A38002C08A8072D0803182D0F232D242DA907EE
:100A48002E0803182E0F292D2A2DAA072F08031860
:100A58002F0AAB072B08A3002A08A2002908A10027
:100A68002808A0008030A8002808B006B309B30AF7
:100A78003308031D402D412D5E2D0130A0070030A5
:100A880003180130A107003003180130A207003015
:100A980003180130A3075E2D2408A0022508031CB3
:100AA800250FA1022608031C260FA2022708031CF3
:100AB800270FA3022308220421042004031D652D07
:100AC800662D922D3308031D6A2D6B2D922D003053
:100AD800A3000030A2000030A1000030A000102EBA
:100AE8000130A8000310A00DA10DA20DA30DA80BA5
:100AF800762DB31F802D812D822D2014331C852D3A
:100B0800862D892D0314B30D8B2D0310B30D3208D8
:100B180003198F2D902D922D0130B202A21F952D11
:100B2800962D742DB101B31F9A2D9B2DA92D330835
:100B38007F390319A02DA12DA42DB101B10AA92D2A
:100B4800201CA72DA82DA92DA12D31080319AD2DE5
:100B5800AE2DE22D0130A007003003180130A107A7
:100B6800003003180130A207003003180130A30732
:100B7800231CBF2DC02DE22D2008A8002108A900A4
:100B88002208AA002308AB000130AC002B0DAB0CE7
:100B9800AA0CA90CA80CAC0BCA2D2B08A3002A0878
:100BA800A2002908A1002808A000320A0319DD2D97
:100BB800DE2DE22D0130A8002808B207320A0319F9
:100BC800E62DE72DEC2D3208031DEB2DEC2DFA2D2B
:100BD8000030A3000030A2000030A1000030A000C7
:100BE8003208031DF82DF92DFA2DB001321CFD2D08
:100BF800FE2D002EA217042E7F30A8002808A2057B
:100C08003208A8000310280CA9002908A300B01F67
:100C18000E2E0F2E102EA317080083120313570849
:100C28008039D8005808E1005708D8005807D9007B
:100C38005908E800D61F212E222E232E6814680892
:100C48000319272E282E382E680A031D2C2E2D2E28
:100C5800352E0030D7000030D6000030D5000030E7
:100C6800D400D617D701402E0030D7000030D60068
:100C78000030D5000030D40053088039D800580817
:100C8800E1065308D8005807D9005908E900D21FCF
:100C98004E2E4F2E502E691469080319542E552EC6
:100CA800652E690A031D592E5A2E622E0030D30074
:100CB8000030D2000030D1000030D000D217D3016C
:100CC8006D2E0030D3000030D2000030D10000304B
:100CD800D0005308520451045004031D742E752E7D
:100CE8008E2E0030D7000030D6000030D5000030FE
:100CF800D4008030D6047F30D7046108D800580863
:100D0800D7045708D3005608D2005508D100540814
:100D1800D000ED2F6808031D922E932E9C2E0030D4
:100D2800D3000030D2000030D1000030D000ED2FC9
:100D38006808D800D9015908DB0069085802DA00A8
:100D4800031CDB035A087F3EE2005B080318013EE0
:100D5800003EE3005708E0005608DF005508DE00B3
:100D68005408DD000030D7000030D6000030D50030
:100D78000030D4000030E7000030E6000030E50025
:100D88000030E400E901122F69080319CC2ECD2E9A
:100D9800ED2E0130D8000310DD0DDE0DDF0DE00D66
:100DA800D80BCF2E0130D8000310D40DD50DD60D99
:100DB800D70DD80BD82EE71FE22EE32EE42E5414BD
:100DC8000130D8000310E40DE50DE60DE70DD80B52
:100DD800E62E53086002031DFB2E52085F02031D16
:100DE800FB2E51085E02031DFB2E50085D02031CFA
:100DF800FE2EFF2E0E2F67175008DD025108031C28
:100E0800510FDE025208031C520FDF025308031C65
:100E1800530FE0020130D8005808E9071A30690278
:100E2800031C172F182FC82E60085F045E045D048A
:100E380003191F2F202F3F2F64143F2F0130D80094
:100E48000310D40DD50DD60DD70DD80B242FE71FC1
:100E58002E2F2F2F302F54140130D8000310E40DFB
:100E6800E50DE60DE70DD80B322FFF30E20703182A
:100E7800E30AFF30E307D61F422F432F222FE90151
:100E8800E71F472F482F642FFF306405D800FF3035
:100E98006505D900FF306605DA007F306705DB009D
:100EA8005B085A045904580403195B2F5C2F5F2F01
:100EB800E901E90A642F541C622F632F642F5C2F09
:100EC80069080319682F692F9A2F0130D407003059
:100ED80003180130D507003003180130D607003059
:100EE80003180130D707571C7A2F7B2F9A2F5408E5
:100EF800D8005508D9005608DA005708DB00013039
:100F0800DC005B0DDB0CDA0CD90CD80CDC0B852F64
:100F18005B08D7005A08D6005908D5005808D400ED
:100F28000130E2070318E30A0030E3076308803A58
:100F3800FF0080307F02031DA32FFF306202031CD5
:100F4800A62FA72FB52FFF3083120313E20000301E
:100F5800E3000030D7000030D6000030D500003064
:100F6800D400831203136308803AFF0080307F02A5
:100F7800031DC02F013062020318C32FC42FD12FC5
:100F880083120313E201E3010030D7000030D600DA
:100F98000030D5000030D400E10183120313620849
:100FA800D8005808E800681CDA2FDB2FDD2FD61789
:100FB800E12F7F30D8005808D6056808D8000310FC
:100FC800580CD9005908D7006108D8005808D70428
:100FD800852E0800F500F4013A3075020318F52F44
:100FE800F62FFE2F30307502031CFB2FFC2FFE2F2F
:100FF800F401F40A740C080008308A000408840A12
:1010080082070034013400340A3400346434003474
:10101800E8340334103427342034533431343A3428
:10102800203420342034533432343A3420342034B9
:101038002034533433343A3400344C344334443455
:0C1048003A34203425343634753400343A
:10140800F400740883120313880008006400800144
:10141800840A04060319003404060B2A00300A1251
:101428008A151F220A128A1501300A128A151F22EC
:101438000A128A150800F5008312031309107508AB
:101448000A128A1504220A128A15831203138914B0
:101458000B3083120313A1006130A000A00B322AC5
:10146800A10B322A372A831203138910080083122A
:101478000313A0002008F5007508A1002108F50055
:101488007508A200091422080A128A1504220A12F1
:101498008A158312031389141A30F500F50B522AA2
:1014A800000083120313891008008030831203138D
:1014B800CB064F08A3004E08A2004D08A1004C0817
:1014C800A0004B08A7004A08A6004908A50048083C
:1014D800A4000A128A1189230A128A158312031397
:1014E8002308CB002208CA002108C9002008C80028
:1014F8000800F401F50183120313201C842A852AAD
:101508008B2A2208F4070318F50A2308F507013087
:101518000310A20DA30DFF3E031D8C2A01300310FA
:10152800A10CA00CFF3E031D932A20082104031DD3
:101538009E2A9F2A7F2A7508A1007408A000080027
:1015480083120313A300A401A501BF2A24082307BB
:1015580084000A128A1500200A128A150A128A15AE
:101568003B220A128A15013083120313A4070318B9
:10157800A50A0030A5072408230784000A128A1543
:1015880000200A128A15003A031DCB2ACC2AAA2A5F
:10159800080083120313A600A201A3017408A00087
:1015A800A1012008A4002108A500261CDC2ADD2AA8
:1015B800E32A2408A2070318A30A2508A307013071
:1015C8000310A40DA50DFF3E031DE42A0310A60C6D
:1015D8002608031DF02AF12AD92A2308F500220833
:1015E800F4000800831203130C1FFB2AFC2A1D2B8E
:1015F8001E08F000F1017008EE007108EF006E0897
:10160800F100F0017008EE007108EF008316031373
:101618001E08F000F101700883120313EE0471082C
:10162800EF040C132130F000F00B182B8312031376
:101638009F1473088A00720E8300FE0E7E0E090046
:10164800013083160313850086018701880189010B
:1016580083120313890185018601870188010130FE
:101668008316031788008901831603130F178F1633
:101678000F160F149F131F129F12831203131F08B4
:101688003F3980389F00C3309F051F142130F40074
:10169800F40B4C2B831203139F148B170B170800A2
:1016A800831203132708280403195B2B5C2B8B2B4D
:1016B800AB01AB0A6A2B01300310A70DA80DFF3E42
:1016C800031D602B0130F5007508AB07A81F6D2BB3
:1016D8006E2B5F2B28082A02031D742B270829026A
:1016E800031C772B782B7E2B2708A9022808031CBC
:1016F800AA03AA0201300310A80CA70CFF3E031D81
:101708007F2B0130AB02031D8A2B8B2B6E2B2A08F3
:10171800A8002908A700080083120313A501A60141
:10172800200821040319992B9A2BD12BA401A40A70
:10173800A82B01300310A00DA10DFF3E031D9E2B09
:101748000130F4007408A407A11FAB2BAC2B9D2B10
:1017580001300310A50DA60DFF3E031DAD2B21087A
:101768002302031DB92B20082202031CBC2BBD2B0E
:10177800C42B2008A2022108031CA303A3022514DA
:1017880001300310A10CA00CFF3E031DC52B013036
:10179800A402031DD02BD12BAC2B2608A1002508B1
:1017A800A000080000300A128A1504220A128A15BD
:1017B800343083120313A300F130A200A20BE22BF2
:1017C800A30BE22B30300A128A151F220A128A153F
:1017D8000D3083120313A300FB30A200A20BF22BDF
:1017E800A30BF22B30300A128A151F220A128A150F
:1017F800843083120313A200A20B002C00003030A7
:101808000A128A151F220A128A153C300A128A15F2
:101818001F220A128A1508300A128A151F220A1274
:101828008A1501300A128A151F220A128A150630F3
:101838000A128A151F220A128A1508008312031336
:10184800A5002503031D292C2A2C4F2C22087F3E96
:10185800A3002308A8002808A30004300310A30C41
:10186800FF3E031D322C2308A4002408A6002808E4
:101878000F39A3002308A70026080A128A151F2279
:101888000A128A158312031327080A128A151F22BF
:101898000A128A15792C02302506031D542C552C62
:1018A800792C2208BF3EA3002308A8002808A3001B
:1018B80004300310A30CFF3E031D5D2C2308A40075
:1018C8002408A6002808F039A3002308A700260842
:1018D8000A128A151F220A128A158312031327086F
:1018E8000A128A151F220A128A1508000310831289
:1018F8000313220D230DA4002408F5007508031D09
:10190800862C872C902C0030A3000030A2000030D9
:10191800A1000030A000F52C2008A4002108A50093
:101928002208A6002308A7001F300310A70CA60C46
:10193800A50CA40CFF3E031D992C2408A800280818
:10194800F400A217FF30A005FF30A105FF30A20563
:101958000030A3059630F502F51FB32CB42CCE2C1D
:101968007508803A973E0318BA2CBB2CBC2C872CE0
:1019780001300310A30CA20CA10CA00CFF3E031D08
:10198800BD2C0130A4002408F507031DCC2CCD2C58
:10199800BC2CE52C20307502031CD32CD42CE02C55
:1019A800872C0130A4000310A00DA10DA20DA30DDA
:1019B800A40BD72C0130F5027508031DE42CE52C87
:1019C800D52C74080319E92CEA2CF52CA009A109D7
:1019D800A209A309A00A0319A10A0319A20A031953
:1019E800A30A080083120313A80028080319FD2C72
:1019F800FE2C122DA31F012D022D122D2009AA0045
:101A08002109AB002209AC002309AD00AA0A031979
:101A1800AB0A0319AC0A0319AD0A1A2D2308AD0045
:101A28002208AC002108AB002008AA0023082204E1
:101A380021042004031D212D222D2B2D0030A3006D
:101A48000030A2000030A1000030A000B12D963077
:101A5800A4002408A9003D2D0130A4002408A907EA
:101A680001300310AD0CAC0CAB0CAA0CFF3E031DEF
:101A7800352DFE302D05031D422D432D302D5F2DB4
:101A88000130A4002408A9070130AA070030031870
:101A98000130AB07003003180130AC0700300318E1
:101AA8000130AD0701300310AD0CAC0CAB0CAA0C27
:101AB800FF3E031D572DFF302D05031D642D652D99
:101AC800442D712D0130A9020130A4000310AA0D84
:101AD800AB0DAC0DAD0DA40B6A2DAC1B742D752D83
:101AE8007B2D0230290203187A2D7B2D662D2918AB
:101AF8007E2D7F2D872DFF30AA05FF30AB057F3067
:101B0800AC05FF30AD050310A90C2908A400A501F8
:101B1800A601A70118300310A40DA50DA60DA70D49
:101B2800FF3E031D8F2D2408AA042508AB042608B0
:101B3800AC042708AD0428080319A32DA42DA92D4A
:101B4800A31FA72DA82DA92DAD172D08A3002C087C
:101B5800A2002B08A1002A08A00008000A128A1572
:101B680024230A128A150A128A15D6230A128A15FC
:101B78000A128A1512220A128A1583120313A20165
:101B8800A20A01300A128A1522240A128A150B3079
:101B98000A128A15A4220A128A15831203139F14A3
:101BA8003B3083120313B100A030B0002730AF00E0
:101BB800FE30AE006E08A0006F08A100A201A301CC
:101BC80000300A128A15F6240A128A1583120313A2
:101BD8002308B5002208B4002108B3002008B20089
:101BE8000A128A1128200A128A158312031331084F
:101BF800CB003008CA002F08C9002E08C8004030A2
:101C0800CF00A030CE000030CD000030CC000A124A
:101C18008A1559220A128A15831203134B08D30016
:101C28004A08D2004908D1004808D0004230B10023
:101C38004330B0008030AF00D230AE006E08A00054
:101C48006F08A100A201A30100300A128A15F62428
:101C58000A128A15831203132308B5002208B40058
:101C68002108B3002008B2000A128A1128200A129B
:101C78008A15831203133108D7003008D6002F08BD
:101C8800D5002E08D4000A128A1111260A128A15C4
:101C9800831203135308ED005208EC005108EB00BF
:101CA8005008EA006D08A3006C08A2006B08A100A8
:101CB8006A08A0000A128A157A240A128A15831261
:101CC80003132308F9002208F8002108F700200868
:101CD800F6001C3083160313B00030088312031378
:101CE800AC007908B0007808AF007708AE00760835
:101CF800AD00A0300A128A15A5260A128A15831289
:101D08000313A201A20A02300A128A1522240A1217
:101D18008A15A0300A128A153B220A128A15063043
:101D280083160313B2001330B100AD30B000B00B0E
:101D38009B2EB10B9B2EB20B9B2ED42D0A128A110F
:101D48000C2883120313B9002D30B1003108B500F7
:101D5800E92F25303C060319B22EB32EBF2E3C08BE
:101D6800B100390884003108831380000130B100C4
:101D78003108B907E92FBA01BB01B4012C08840066
:101D88000A128A1500200A128A150A128A11EE27E9
:101D98000A128A15031CD12ED22E182F8312031370
:101DA800BA01BB010A3083120313A0000030A1005E
:101DB8003B08A3003A08A2000A128A157D220A12DB
:101DC8008A15831203132108BB002008BA002C08C7
:101DD80084000A128A1500200A128A15D03EB10022
:101DE800FF3003180030B2003108BA070318BB0AE5
:101DF8003208BB070130B1003108AC072C08840059
:101E08000A128A1500200A128A150A128A11EE2768
:101E18000A128A150318112F122FD62E182FC03028
:101E2800B1003108B404342F013083120313AC0716
:101E3800FF302C0784000A128A1500200A128A151E
:101E4800BC00B100B2013208003A03192C2FE92F67
:101E58003108003A0319FB2F753A0319132FE92F9C
:101E68003508840083130008B600840A0008B70008
:101E78000230B1003108B507BC01BC0A3C08B1000A
:101E88003107013E84000A128A1500200A128A15B9
:101E9800B2000A128A1500200A128A15B300330804
:101EA8003702031D592F3208360203185C2F5D2FA5
:101EB8005E2F682F0130B1003108BC0705303C06A1
:101EC800031D672F682F422F3B08803A803C031D73
:101ED8006F2F3A083C020318722F732F7F2F83123B
:101EE80003133C08B100B2013108BA023208031CDE
:101EF800BB03BB02832F83120313BA01BB013A0849
:101F08003B040319882F892FA02F2030B1003908EE
:101F180084003108831380000130B1003108B9070B
:101F2800FF30BA070318BB0AFF30BB073A083B0467
:101F3800031D9F2FA02F892F3C08B1003108B8003E
:101F4800E02F0A30A7000030A8003808B100310798
:101F5800013E84000A128A1500200A128A15A00080
:101F68000A128A1500200A128A15A1003708A30050
:101F78003608A2000A128A1590230A128A158312BB
:101F880003132108AA002008A9000A128A1554235D
:101F98000A128A15831203132708303EB20032084A
:101FA800BC003C08B1003908840031088313800064
:101FB8000130B1003108B907FF30B1003108B80766
:101FC800380A031DE82FE92FA52F0130AC07FF3091
:101FD8002C0784000A128A1500200A128A15B100FB
:101FE8003108BC003C08031DFA2FFB2FAD2E390821
:081FF80084008313800108003E
:04400E00D420FF3F7C
:00000001FF
