:060000000A128A110C280F
:10000800FE00030EF2000A08F3000A128A11692F93
:100018000A128A110F28F601F701F801F901831273
:100028000313EB01EC01ED01EE01EF01831603135D
:10003800A001A101A201A30183010A128A111E2EA7
:100048008312031331088039B6003608BB00310823
:10005800B6003607B7003708C100B01F3428352866
:1000680036284114410803193A283B284A28410AEE
:10007800031D3F28402848280030B1000030B00058
:100088000030AF000030AE00B01752280030B10089
:100098000030B0000030AF000030AE0035088039C5
:1000A800B6003608BB063508B6003607B70037086D
:1000B800BC00B41F6028612862283C143C0803195E
:1000C8006628672876283C0A031D6B286C28742844
:1000D8000030B5000030B4000030B3000030B2008A
:1000E800B4177E280030B5000030B4000030B300EB
:1000F8000030B2003C080319822883288828410868
:10010800031D8728882891280030B1000030B000EE
:100118000030AF000030AE00842B2E08B600360841
:10012800F40034080A128A1599270A128A117508E8
:1001380083120313C7007408C6004608B600B70147
:10014800B801B9013908C0003808BF003708BE0037
:100158003608BD004708B600B701B801B90139082B
:10016800C5003808C4003708C3003608C2002F0885
:10017800B6003608F40033080A128A1599270A12BD
:100188008A11750883120313C7007408C60046084D
:10019800B600B701B801B9013608BD073708031121
:1001A8000318013E0319D928BE073808031103189C
:1001B800013E0319E028BF07390803110318013E5F
:1001C8000319E728C0074708B600B701B801B90105
:1001D8003608C207370803110318013E0319F5282A
:1001E800C307380803110318013E0319FC28C40784
:1001F800390803110318013E03190329C5073008FC
:10020800B6003608F40032080A128A1599270A122D
:100218008A11750883120313C7007408C6004608BC
:10022800B600B701B801B9013608BD073708031190
:100238000318013E03192129BE07380803110318C2
:10024800013E03192829BF07390803110318013E85
:1002580003192F29C0074708B600B701B801B9012B
:100268003608C207370803110318013E03193D2950
:10027800C307380803110318013E03194429C407AA
:10028800390803110318013E03194B29C507083023
:10029800B6000310BD0DBE0DBF0DC00DB60B4D2928
:1002A8002F08B6003608F40032080A128A15992772
:1002B8000A128A11750883120313C7007408C6004E
:1002C8004608B6004708B700B801B9013608BD07A7
:1002D800370803110318013E03197329BE073808AC
:1002E80003110318013E03197A29BF0739080311BE
:1002F8000318013E03198129C0072E08B6003608E5
:10030800F40033080A128A1599270A128A11750807
:1003180083120313C7007408C6004608B6004708CE
:10032800B700B801B9013608BD073708031103182B
:10033800013E0319A029BE07380803110318013E1E
:100348000319A729BF07390803110318013E031928
:10035800AE29C0070830B6000310BD0DBE0DBF0D95
:10036800C00DB60BB0292E08B6003608F4003208C6
:100378000A128A1599270A128A117508831203131B
:10038800C7007408C6004608B6004708B700B80199
:10039800B9013608BD07370803110318013E0319D0
:1003A800D629BE07380803110318013E0319DD29B1
:1003B800BF07390803110318013E0319E429C007D0
:1003C8002F08B6003608F40034080A128A1599274F
:1003D8000A128A11750883120313C7007408C6002D
:1003E8004608B6004708B700B801B9013608C20781
:1003F800370803110318013E0319032AC3073808F5
:1004080003110318013E03190A2AC4073908031106
:100418000318013E0319112AC5073008B60036082B
:10042800F40033080A128A1599270A128A117508E6
:1004380083120313C7007408C6004608B6004708AD
:10044800B700B801B9013608C20737080311031805
:10045800013E0319302AC307380803110318013E67
:100468000319372AC407390803110318013E031971
:100478003E2AC5073008B6003608F40034080A12C8
:100488008A1599270A128A11750883120313C7005F
:100498007408C6004608B6004708B700B801B90195
:1004A80008300310B60DB70DB80DB90DFF3E031D8A
:1004B800552A3608C207370803110318013E0319E5
:1004C800662AC307380803110318013E03196D2A69
:1004D800C407390803110318013E0319742AC50714
:1004E8003D08B6003E08B7003F08B8004008B9000C
:1004F80018300310B90CB80CB70CB60CFF3E031D2E
:100508007D2A3608C207370803110318013E03196C
:100518008E2AC307380803110318013E0319952AC8
:10052800C407390803110318013E03199C2AC5079B
:100538000830B6000310BD0DBE0DBF0DC00DB60BC3
:100548009E2A41083C07B600B701B70D3608823E1F
:10055800C60037080318013EFF3EC700D02A013005
:10056800B6000310C20DC30DC40DC50DB60BB52AD8
:10057800C01FBF2AC02AC12A42140130B600031086
:10058800BD0DBE0DBF0DC00DB60BC32AFF30C6078B
:100598000318C70AFF30C707C41FD32AD42AB32AAF
:1005A800BC01C01FD82AD92AF52AFF303D05B6005C
:1005B800FF303E05B700FF303F05B8007F304005EB
:1005C800B90039083804370436040319EC2AED2A2F
:1005D800F02ABC01BC0AF52A421CF32AF42AF52A9F
:1005E800ED2A3C080319F92AFA2A2B2B0130C207F5
:1005F800003003180130C307003003180130C40766
:10060800003003180130C507451C0B2B0C2B2B2B76
:100618004208B6004308B7004408B8004508B900C6
:100628000130BA00390DB90CB80CB70CB60CBA0BBE
:10063800162B3908C5003808C4003708C300360827
:10064800C2000130C6070318C70A0030C7074708A9
:10065800803AFF0080307F02031D342BFF304602B2
:10066800031C372B382B432B7F3083120313C50011
:100678008030C4000030C3000030C200782B8312E1
:1006880003134708803AFF0080307F02031D4E2B7A
:10069800013046020318512B522B5E2B0030831277
:1006A8000313C5000030C4000030C3000030C2008E
:1006B800BB01782B831203134608B6003608C10025
:1006C800FF30C205FF30C3057F30C4050030C505C3
:1006D800411C6F2B702B712BC4174108B6000310F7
:1006E800360CB7003708C5003B08B6003608C50405
:1006F8004508B1004408B0004308AF004208AE0006
:100708000800831203134F088039D0005008D9001D
:100718004F08D0005007D1005108E000CE1F952B9C
:10072800962B972B6014600803199B2B9C2BAC2BE2
:10073800600A031DA02BA12BA92B0030CF0000308D
:10074800CE000030CD000030CC00CE17CF01B42B46
:100758000030CF000030CE000030CD000030CC009B
:100768004B088039D0005008D9064B08D0005007F4
:10077800D1005108E100CA1FC22BC32BC42B61143E
:1007880061080319C82BC92BD92B610A031DCD2B6E
:10079800CE2BD62B0030CB000030CA000030C90069
:1007A8000030C800CA17CB01E12B0030CB00003065
:1007B800CA000030C9000030C8004B084A04490488
:1007C8004804031DE82BE92B022C0030CF00003031
:1007D800CE000030CD000030CC008030CE047F3019
:1007E800CF045908D0005008CF044F08CB004E085A
:1007F800CA004D08C9004C08C800612D6008031DD7
:10080800062C072C102C0030CB000030CA0000301A
:10081800C9000030C800612D6008D000D10151081E
:10082800D30061085002D200031CD30352087F3E54
:10083800DA0053080318013E003EDB004F08D800D9
:100848004E08D7004D08D6004C08D5000030CF0020
:100858000030CE000030CD000030CC000030DF008A
:100868000030DE000030DD000030DC00E101862CC5
:1008780061080319402C412C612C0130D000031071
:10088800D50DD60DD70DD80DD00B432C0130D00087
:100898000310CC0DCD0DCE0DCF0DD00B4C2CDF1F82
:1008A800562C572C582C4C140130D0000310DC0D5A
:1008B800DD0DDE0DDF0DD00B5A2C4B085802031D41
:1008C8006F2C4A085702031D6F2C49085602031D56
:1008D8006F2C48085502031C722C732C822C5F174E
:1008E8004808D5024908031C490FD6024A08031CC8
:1008F8004A0FD7024B08031C4B0FD8020130D00017
:100908005008E1071A306102031C8B2C8C2C3C2CFC
:1009180058085704560455040319932C942CB32CE7
:100928005C14B32C0130D0000310CC0DCD0DCE0DCE
:10093800CF0DD00B982CDF1FA22CA32CA42C4C1469
:100948000130D0000310DC0DDD0DDE0DDF0DD00B06
:10095800A62CFF30DA070318DB0AFF30DB07CE1FAF
:10096800B62CB72C962CE101DF1FBB2CBC2CD82C45
:10097800FF305C05D000FF305D05D100FF305E051B
:10098800D2007F305F05D30053085204510450044D
:100998000319CF2CD02CD32CE101E10AD82C4C1C04
:1009A800D62CD72CD82CD02C61080319DC2CDD2CA4
:1009B8000E2D0130CC07003003180130CD07003070
:1009C80003180130CE07003003180130CF074F1C41
:1009D800EE2CEF2C0E2D4C08D0004D08D1004E08FF
:1009E800D2004F08D3000130D400530DD30CD20CE1
:1009F800D10CD00CD40BF92C5308CF005208CE00E0
:100A08005108CD005008CC000130DA070318DB0A82
:100A18000030DB075B08803AFF0080307F02031D4F
:100A2800172DFF305A02031C1A2D1B2D292DFF30BC
:100A380083120313DA000030DB000030CF000030EF
:100A4800CE000030CD000030CC00831203135B08C9
:100A5800803AFF0080307F02031D342D01305A0296
:100A68000318372D382D452D83120313DA01DB01C6
:100A78000030CF000030CE000030CD000030CC0078
:100A8800D901831203135A08D0005008E000601CF3
:100A98004E2D4F2D512DCE17552D7F30D00050089B
:100AA800CE056008D0000310500CD1005108CF00CB
:100AB8005908D0005008CF04F92B080083120313FB
:100AC800A80028080319692D6A2D7E2DA31F6D2DF6
:100AD8006E2D7E2D2009AA002109AB002209AC0049
:100AE8002309AD00AA0A0319AB0A0319AC0A0319B2
:100AF800AD0A862D2308AD002208AC002108AB0002
:100B08002008AA002308220421042004031D8D2D97
:100B18008E2D972D0030A3000030A2000030A100D8
:100B28000030A0001D2E9630A4002408A900A92D8D
:100B38000130A4002408A90701300310AD0CAC0C47
:100B4800AB0CAA0CFF3E031DA12DFE302D05031D85
:100B5800AE2DAF2D9C2DCB2D0130A4002408A90764
:100B68000130AA07003003180130AB070030031822
:100B78000130AC07003003180130AD070130031015
:100B8800AD0CAC0CAB0CAA0CFF3E031DC32DFF3003
:100B98002D05031DD02DD12DB02DDD2D0130A9023D
:100BA8000130A4000310AA0DAB0DAC0DAD0DA40BC4
:100BB800D62DAC1BE02DE12DE72D023029020318BC
:100BC800E62DE72DD22D2918EA2DEB2DF32DFF3038
:100BD800AA05FF30AB057F30AC05FF30AD0503102B
:100BE800A90C2908A400A501A601A7011830031023
:100BF800A40DA50DA60DA70DFF3E031DFB2D240872
:100C0800AA042508AB042608AC042708AD04280864
:100C180003190F2E102E152EA31F132E142E152E6A
:100C2800AD172D08A3002C08A2002B08A1002A0844
:100C3800A00008000A128A15C2270A128A11831214
:100C480003139F14443083120313CB008030CA006F
:100C58000030C9000030C8004030B100A030B000FA
:100C68000030AF000030AE006E08A0006F08A10091
:100C7800A201A30100300A128A1162250A128A1100
:100C8800831203132308B5002208B4002108B30017
:100C98002008B2000A128A1124200A128A1183122B
:100CA80003133108CF003008CE002F08CD002E08DE
:100CB800CC000A128A1185230A128A11831203139F
:100CC8004B0883160313A300831203134A088316E1
:100CD8000313A20083120313490883160313A10008
:100CE80083120313480883160313A00023088312F2
:100CF8000313B50083160313220883120313B400E9
:100D080083160313210883120313B30083160313F6
:100D1800200883120313B2004230B100C830B0007B
:100D28000030AF000030AE000A128A1124200A12E7
:100D38008A11831203133108CF003008CE002F0820
:100D4800CD002E08CC003F30CB009730CA00AE3023
:100D5800C9001430C8000A128A1185230A128A11A0
:100D6800831203134B08E5004A08E4004908E3002E
:100D78004808E2000A128A11D7260A128A11831239
:100D880003136308EC006208EB0082308316031338
:100D9800A700DD30A600A60BCF2EA70BCF2E262E40
:100DA8000A128A110C28031083120313640D650DAF
:100DB800E600660883160313A5002508031DE52E23
:100DC800E62EF12E003083120313E5000030E40014
:100DD8000030E3000030E200682F8312031362083A
:100DE800E6006308E7006408E8006508E9001F30CA
:100DF8000310E90CE80CE70CE60CFF3E031DFC2E83
:100E08006608EA006A0883160313A4008312031312
:100E1800E417FF30E205FF30E305FF30E40500305A
:100E2800E505963083160313A502A51F1C2F1D2F59
:100E38003B2F2508803A973E0318232F242F252F70
:100E4800E62E0130031083120313E50CE40CE30CC7
:100E5800E20CFF3E031D262F0130E60066088316CC
:100E68000313A507031D392F3A2F252F562F20309E
:100E78002502031C402F412F512FE62E01308312EB
:100E88000313E6000310E20DE30DE40DE50DE60B98
:100E9800462F013083160313A5022508031D552F7D
:100EA800562F422F240803195A2F5B2F682F8312BD
:100EB8000313E209E309E409E509E20A0319E30A6D
:100EC8000319E40A0319E50A0800831203130C1F27
:100ED8006E2F6F2F7F2F1E08F000F1017008EE00B3
:100EE8007108EF000C132730F000F00B792F7C2FDE
:100EF800831203139F148C1D822F832FD52F141256
:100F0800141B872F882F8C2F941F8B2F8C2F932F98
:100F18001308F0007008ED001413941314168316C8
:100F28000313941A982F992FB12F14199C2F9D2FC2
:100F3800B12F831203131308F0007008ED008C1111
:100F4800141683160313141CAA2FAB2FA52FA63033
:100F5800F000F00BAD2F0000D22F941AB42FB52F4C
:100F6800D22F141DB82FB92FD22F831203131308B1
:100F7800F0007008ED008316031314108312031396
:100F88006B0893001416A630F000F00BC92F000070
:100F9800831603131418D12FD22FCC2F83120313C7
:100FA8008C1173088A00720E8300FE0E7E0E0900F3
:100FB800F400740883160313930036308312031366
:100FC8009400803083160313940001309100871534
:100FD80007168B170B17831203138C118316031331
:040FE8008C1508005C
:101F320083120313A600A201A3017408A000A10149
:101F42002008A4002108A500261CA82FA92FAF2F26
:101F52002408A2070318A30A2508A30701300310C7
:101F6200A40DA50DFF3E031DB02F0310A60C2608DD
:101F7200031DBC2FBD2FA52F2308F5002208F40056
:101F8200080001308316031385008601870188014A
:101F92008901831203138901850186018701880162
:101FA20001308316031788008901831603139F13D8
:101FB2001F129F12831203131F083F3980389F009C
:101FC200C3309F051F142130F500F50BE62F831255
:101FD20003139F14831603130C17831203130C139A
:101FE200831603130F178F160F160F148B170B1769
:0E1FF20060300A128A11DC270A128A150800D4
:04400E00D420FF3F7C
:00000001FF
