:060000000A128A110C280F
:10000800FE00030EF2000A08F3000A128A15DA2C21
:100018000A128A110F28F801F90183120313E90162
:10002800EA01EB01EC018313A0308400B4300A121A
:100038008A1524240A128A1183010A128A15142F98
:10004800831203132D088039B2003208B7002D0837
:10005800B2003207B3003308BD00AC1F342835287E
:1000680036283D143D0803193A283B284A283D0AFA
:10007800031D3F28402848280030AD000030AC0060
:100088000030AB000030AA00AC1752280030AD0099
:100098000030AC000030AB000030AA0031088039D5
:1000A800B2003208B7063108B2003207B30033088D
:1000B800BC00B01F6028612862283C143C08031962
:1000C8006628672876283C0A031D6B286C28742844
:1000D8000030B1000030B0000030AF000030AE009A
:1000E800B0177E280030B1000030B0000030AF00FB
:1000F8000030AE003C0803198228832888283D0870
:10010800031D8728882891280030AD000030AC00F6
:100118000030AB000030AA00842B2A08B200320855
:10012800F40030080A128A15B1240A128A117508D7
:1001380083120313C3007408C2004208B200B3015B
:10014800B401B5013508BB003408BA003308B9005A
:100158003208B8004308B200B301B401B50135084C
:10016800C1003408C0003308BF003208BE002B08A5
:10017800B2003208F4002F080A128A15B1240A12B4
:100188008A11750883120313C3007408C200420859
:10019800B200B301B401B5013208B807330803113E
:1001A8000318013E0319D928B907340803110318A5
:1001B800013E0319E028BA07350803110318013E68
:1001C8000319E728BB074308B200B301B401B5011E
:1001D8003208BE07330803110318013E0319F52836
:1001E800BF07340803110318013E0319FC28C00790
:1001F800350803110318013E03190329C1072C0808
:10020800B2003208F4002E080A128A15B1240A1224
:100218008A11750883120313C3007408C2004208C8
:10022800B200B301B401B5013208B80733080311AD
:100238000318013E03192129B907340803110318CB
:10024800013E03192829BA07350803110318013E8E
:1002580003192F29BB074308B200B301B401B50144
:100268003208BE07330803110318013E03193D295C
:10027800BF07340803110318013E03194429C007B6
:10028800350803110318013E03194B29C10708302B
:10029800B2000310B80DB90DBA0DBB0DB20B4D2944
:1002A8002B08B2003208F4002E080A128A15B1246D
:1002B8000A128A11750883120313C3007408C20056
:1002C8004208B2004308B300B401B5013208B807C8
:1002D800330803110318013E03197329B9073408B9
:1002E80003110318013E03197A29BA0735080311C7
:1002F8000318013E03198129BB072A08B2003208F6
:10030800F4002F080A128A15B1240A128A117508F6
:1003180083120313C3007408C2004208B2004308E2
:10032800B300B401B5013208B80733080311031844
:10033800013E0319A029B907340803110318013E27
:100348000319A729BA07350803110318013E031931
:10035800AE29BB070830B2000310B80DB90DBA0DAD
:10036800BB0DB20BB0292A08B2003208F4002E08DF
:100378000A128A15B1240A128A1175088312031306
:10038800C3007408C2004208B2004308B300B401B5
:10039800B5013208B807330803110318013E0319E1
:1003A800D629B907340803110318013E0319DD29BA
:1003B800BA07350803110318013E0319E429BB07DE
:1003C8002B08B2003208F40030080A128A15B1244A
:1003D8000A128A11750883120313C3007408C20035
:1003E8004208B2004308B300B401B5013208BE07A1
:1003F800330803110318013E0319032ABF07340801
:1004080003110318013E03190A2AC007350803110E
:100418000318013E0319112AC1072C08B20032083B
:10042800F4002F080A128A15B1240A128A117508D5
:1004380083120313C3007408C2004208B2004308C1
:10044800B300B401B5013208BE073308031103181D
:10045800013E0319302ABF07340803110318013E6F
:100468000319372AC007350803110318013E031979
:100478003E2AC1072C08B2003208F40030080A12DC
:100488008A15B1240A128A11750883120313C3004E
:100498007408C2004208B2004308B300B401B501B1
:1004A80008300310B20DB30DB40DB50DFF3E031D9A
:1004B800552A3208BE07330803110318013E0319F1
:1004C800662ABF07340803110318013E03196D2A71
:1004D800C007350803110318013E0319742AC10720
:1004E8003808B2003908B3003A08B4003B08B50030
:1004F80018300310B50CB40CB30CB20CFF3E031D3E
:100508007D2A3208BE07330803110318013E031978
:100518008E2ABF07340803110318013E0319952AD0
:10052800C007350803110318013E03199C2AC107A7
:100538000830B2000310B80DB90DBA0DBB0DB20BDF
:100548009E2A3D083C07B200B301B30D3208823E33
:10055800C20033080318013EFF3EC300D02A013011
:10056800B2000310BE0DBF0DC00DC10DB20BB52AF0
:10057800BB1FBF2AC02AC12A3E140130B200031093
:10058800B80DB90DBA0DBB0DB20BC32AFF30C207A7
:100598000318C30AFF30C307C01FD32AD42AB32ABB
:1005A800BC01BB1FD82AD92AF52AFF303805B2006A
:1005B800FF303905B300FF303A05B4007F303B0502
:1005C800B50035083404330432040319EC2AED2A43
:1005D800F02ABC01BC0AF52A3E1CF32AF42AF52AA3
:1005E800ED2A3C080319F92AFA2A2B2B0130BE07F9
:1005F800003003180130BF07003003180130C0076E
:10060800003003180130C107411C0B2B0C2B2B2B7E
:100618003E08B2003F08B3004008B4004108B500E6
:100628000130B600350DB50CB40CB30CB20CB60BDA
:10063800162B3508C1003408C0003308BF00320843
:10064800BE000130C2070318C30A0030C3074308BD
:10065800803AFF0080307F02031D342BFF304202B6
:10066800031C372B382B432B7F3083120313C10015
:100678008030C0000030BF000030BE00782B8312ED
:1006880003134308803AFF0080307F02031D4E2B7E
:10069800013042020318512B522B5E2B003083127B
:1006A8000313C1000030C0000030BF000030BE009E
:1006B800B701782B831203134208B2003208BD0039
:1006C800FF30BE05FF30BF057F30C0050030C105D3
:1006D8003D1C6F2B702B712BC0173D08B200031007
:1006E800320CB3003308C1003708B2003208C10425
:1006F8004108AD004008AC003F08AB003E08AA0026
:1007080008008312031323088039A8002808F4007E
:100718002308A8002807A9002908F600A21F952B7E
:10072800962B972B7614760803199B2B9C2BAC2BB6
:10073800760A031DA02BA12BA92B0030A3000030A3
:10074800A2000030A1000030A000A217A301B42B22
:100758000030A3000030A2000030A1000030A0004B
:1007680027088039A8002808F500750874060319B9
:10077800BE2BBF2BC02B74172708A8002807A90079
:100788002908F500A61FC92BCA2BCB2B7514750891
:100798000319CF2BD02BE02B750A031DD42BD52B97
:1007A800DD2B0030A7000030A6000030A500003087
:1007B800A400A617A701E82B0030A7000030A60068
:1007C8000030A5000030A400760875020318ED2B50
:1007D800EE2B322C741FF12BF22BF62B8030A80055
:1007E8002808F4067608A8002808F7007508A80065
:1007F8002808F6007708A8002808F5002008A800AF
:100808002808F7002408A8002808A0007708A800EE
:100818002808A4002108A8002808F7002508A8002F
:100828002808A1007708A8002808A5002208A80021
:100838002808F7002608A8002808A2007708A800BA
:100848002808A6002308A8002808F7002708A800F9
:100858002808A3007708A8002808A700F70175084A
:10086800A800A9012908AB0076082802AA00031CE1
:10087800AB032B08803AFF0080307F02031D462C13
:100888001A302A02031C492C4A2C8B2C831203137E
:100898002308220421042004031D532C552C013065
:1008A800562C0030A8002808F7000030A3000030BC
:1008B800A2000030A1000030A0007508A800280898
:1008C800F600912C771C692C6A2C752C77088312FA
:1008D8000313A8000310280C0138A9002908F70001
:1008E800772C0310F70C83120313201C7C2C7D2C0F
:1008F8007E2CF7170130A800230DA30CA20CA10C25
:10090800A00CA80B802C0130A8002808F607750851
:100918007602031C902C912C662C741B942C952C1D
:10092800E42C7608031D992C9A2CA52C00308312F0
:100938000313A3000030A2000030A1000030A00083
:10094800142E831203132408A00725080311031883
:10095800013E0319B02CA107260803110318013E14
:100968000319B72CA207270803110318013E03191E
:10097800BE2CA307231CC12CC22C9A2D771CC52C76
:10098800C62CCF2C7708A8000310280C0138A90022
:100998002908F700D12C0310F70C201CD42CD52CD7
:1009A800D62CF7170130A800230DA30CA20CA10C1C
:1009B800A00CA80BD82C0130A8002808F6079A2DFF
:1009C800831203132308803AFF002708803A7F0226
:1009D800031DF82C26082202031DF82C25082102E5
:1009E800031DF82C240820020318FB2CFC2C542D82
:1009F800FF30A800FF30A900FF30AA00FF30AB008D
:100A08002408AC002508AD002608AE002708AF0072
:100A18002008AC022108031C210F132D142DAD0250
:100A28002208031C220F192D1A2DAE022308031CBD
:100A3800230F1F2D202DAF022C08A8072D080318FF
:100A48002D0F272D282DA9072E0803182E0F2D2D21
:100A58002E2DAA072F0803182F0AAB072B08A3006F
:100A68002A08A2002908A1002808A0008030A800B0
:100A78002808F406F709F70A7708031D442D452DC1
:100A8800622D0130A007003003180130A1070030A3
:100A980003180130A207003003180130A307622DA4
:100AA8002408A0022508031C250FA1022608031C00
:100AB800260FA2022708031C270FA30223082204DB
:100AC80021042004031D692D6A2D962D7708031D26
:100AD8006E2D6F2D962D0030A3000030A20000303F
:100AE800A1000030A000142E0130A8000310A00DB2
:100AF800A10DA20DA30DA80B7A2DF71F842D852D0E
:100B0800862D2014771C892D8A2D8D2D0314F70D21
:100B18008F2D0310F70D76080319932D942D962D1C
:100B28000130F602A21F992D9A2D782DF501F71F95
:100B38009E2D9F2DAD2D77087F390319A42DA52D46
:100B4800A82DF501F50AAD2D201CAB2DAC2DAD2D32
:100B5800A52D75080319B12DB22DE62D0130A0077A
:100B6800003003180130A107003003180130A20734
:100B7800003003180130A307231CC32DC42DE62D14
:100B88002008A8002108A9002208AA002308AB0011
:100B98000130AC002B0DAB0CAA0CA90CA80CAC0BAB
:100BA800CE2D2B08A3002A08A2002908A100280896
:100BB800A000760A0319E12DE22DE62D0130A800E8
:100BC8002808F607760A0319EA2DEB2DF02D76088A
:100BD800031DEF2DF02DFE2D0030A3000030A200E4
:100BE8000030A1000030A0007608031DFC2DFD2D6B
:100BF800FE2DF401761C012E022E042EA217082EBB
:100C08007F30A8002808A2057608A8000310280C41
:100C1800A9002908A300F41F122E132E142EA317BF
:100C280008008312031353088039D4005408DD00E8
:100C38005308D4005407D5005508E400D21F252EC8
:100C4800262E272E6414640803192B2E2C2E3C2ED6
:100C5800640A031D302E312E392E0030D3000030A7
:100C6800D2000030D1000030D000D217D301442E7A
:100C78000030D3000030D2000030D1000030D00066
:100C88004F088039D4005408DD064F08D4005407B3
:100C9800D5005508E500CE1F522E532E542E65144C
:100CA80065080319582E592E692E650A031D5D2EF5
:100CB8005E2E662E0030CF000030CE000030CD0012
:100CC8000030CC00CE17CF01712E0030CF0000309D
:100CD800CE000030CD000030CC004F084E044D044B
:100CE8004C04031D782E792E922E0030D30000304C
:100CF800D2000030D1000030D0008030D2047F30E4
:100D0800D3045D08D4005408D3045308CF00520814
:100D1800CE005108CD005008CC00F12F6408031D07
:100D2800962E972EA02E0030CF000030CE00003037
:100D3800CD000030CC00F12F6408D400D50155084F
:100D4800D70065085402D600031CD70356087F3E17
:100D5800DE0057080318013E003EDF005308DC00A0
:100D68005208DB005108DA005008D9000030D300DF
:100D78000030D2000030D1000030D0000030E30055
:100D88000030E2000030E1000030E000E501162FFD
:100D980065080319D02ED12EF12E0130D40003108E
:100DA800D90DDA0DDB0DDC0DD40BD32E0130D400B8
:100DB8000310D00DD10DD20DD30DD40BDC2EE31FB3
:100DC800E62EE72EE82E50140130D4000310E00D73
:100DD800E10DE20DE30DD40BEA2E4F085C02031D72
:100DE800FF2E4E085B02031DFF2E4D085A02031DFD
:100DF800FF2E4C085902031C022F032F122F6317D2
:100E08004C08D9024D08031C4D0FDA024E08031C8A
:100E18004E0FDB024F08031C4F0FDC020130D400D9
:100E28005408E5071A306502031C1B2F1C2FCC2E13
:100E38005C085B045A0459040319232F242F432FF9
:100E48006014432F0130D4000310D00DD10DD20D02
:100E5800D30DD40B282FE31F322F332F342F5014E8
:100E68000130D4000310E00DE10DE20DE30DD40BC9
:100E7800362FFF30DE070318DF0AFF30DF07D21FE7
:100E8800462F472F262FE501E31F4B2F4C2F682FA6
:100E9800FF306005D400FF306105D500FF306205E2
:100EA800D6007F306305D70057085604550454040C
:100EB80003195F2F602F632FE501E50A682F501C87
:100EC800662F672F682F602F650803196C2F6D2F09
:100ED8009E2F0130D007003003180130D1070030B1
:100EE80003180130D207003003180130D307531C10
:100EF8007E2F7F2F9E2F5008D4005108D50052080E
:100F0800D6005308D7000130D800570DD70CD60C9F
:100F1800D50CD40CD80B892F5708D3005608D2000B
:100F28005508D1005408D0000130DE070318DF0A45
:100F38000030DF075F08803AFF0080307F02031D22
:100F4800A72FFF305E02031CAA2FAB2FB92FFF304B
:100F580083120313DE000030DF000030D3000030BE
:100F6800D2000030D1000030D000831203135F0894
:100F7800803AFF0080307F02031DC42F01305E02DB
:100F88000318C72FC82FD52F83120313DE01DF01E3
:100F98000030D3000030D2000030D1000030D00043
:100FA800DD01831203135E08D4005408E400641CB6
:100FB800DE2FDF2FE12FD217E52F7F30D400540822
:100FC800D2056408D4000310540CD5005508D3008A
:100FD8005D08D4005408D304892E080000300A1292
:100FE8008A152C240A128A1101300A128A152C2417
:060FF8000A128A11080034
:1010000008308A000408840A8207003420345334EC
:1010100031343A34203420342034533432343A34A6
:0E102000203420342034533433343A34003436
:10183C00F40074088312031388000800640080010C
:10184C00840A0406031900340406252CF7008312BD
:10185C000313091077080A128A151E240A128A1516
:10186C008312031389140B30F6006230F500F50B6C
:10187C003D2CF60B3D2C000083120313891008003D
:10188C0083120313A0002008F5007508A10021089D
:10189C00F5007508A200091422080A128A151E24E4
:1018AC000A128A158312031389141A30F500F50BEA
:1018BC005D2C000083120313891008008030831202
:1018CC000313C7064B08A3004A08A2004908A1004D
:1018DC004808A0004708A7004608A6004508A50030
:1018EC004408A4000A128A1185230A128A1583124D
:1018FC0003132308C7002208C6002108C5002008CE
:10190C00C400080083120313A300A401A501A32C97
:10191C002408230784000A128A1500200A128A154B
:10192C000A128A1546240A128A15013083120313EF
:10193C00A4070318A50A0030A50724082307840070
:10194C000A128A1500200A128A15003A031DAF2CC0
:10195C00B02C8E2C080083120313A400A001A1014B
:10196C007408F600F7017608A2007708A300241C7F
:10197C00C02CC12CC72C2208A0070318A10A2308CD
:10198C00A10701300310A20DA30DFF3E031DC82CAF
:10199C000310A40C2408031DD42CD52CBD2C210819
:1019AC00F5002008F4000800831203130C1FDF2C31
:1019BC00E02C012D1E08F000F1017008F8007108F0
:1019CC00F9007808F100F0017008F8007108F900CE
:1019DC00831603131E08F000F1017008F804710857
:1019EC00F904831203130C132130F000F00BFC2CC0
:1019FC00831203139F1473088A00720E8300FE0E69
:101A0C007E0E0900013083160313850086018701C1
:101A1C0088018901831203138901850186018701DD
:101A2C00880101308316031788008901831603137C
:101A3C000F178F160F160F149F131F129F1283125E
:101A4C0003131F083F3980389F00C3309F051F14B4
:101A5C002130F400F40B302D831203139F148B17D9
:101A6C000B17080000300A128A151E240A128A1558
:101A7C00343083120313A100F130A000A00B442DCD
:101A8C00A10B442D30300A128A152C240A128A1507
:101A9C000D3083120313A100FB30A000A00B542DBA
:101AAC00A10B542D30300A128A152C240A128A15D7
:101ABC00843083120313A000A00B622D0000303081
:101ACC000A128A152C240A128A153C300A128A151D
:101ADC002C240A128A1508300A128A152C240A1290
:101AEC008A1501300A128A152C240A128A1506301E
:101AFC000A128A152C240A128A1508008312031361
:101B0C00A3002303031D8B2D8C2DB12D20087F3EAC
:101B1C00A1002108A6002608A10004300310A10C86
:101B2C00FF3E031D942D2108A2002208A4002608C4
:101B3C000F39A1002108A50024080A128A152C24AB
:101B4C000A128A158312031325080A128A152C24EB
:101B5C000A128A15DB2D02302306031DB62DB72D74
:101B6C00DB2D2008BF3EA1002108A6002608A100FD
:101B7C0004300310A10CFF3E031DBF2D2108A20051
:101B8C002208A4002608F039A1002108A500240889
:101B9C000A128A152C240A128A158312031325089B
:101BAC000A128A152C240A128A1508000310760DC5
:101BBC00770D83120313A0002008A6002608031D2E
:101BCC00E82DE92DF22D0030F7000030F600003042
:101BDC00F5000030F400572E7408A0007508A10021
:101BEC007608A2007708A3001F300310A30CA20CE8
:101BFC00A10CA00CFF3E031DFB2D2008A400240803
:101C0C00A500F617FF30F405FF30F505FF30F6059B
:101C1C000030F7059630A602A61F152E162E302E74
:101C2C002608803A973E03181C2E1D2E1E2EE92DD9
:101C3C0001300310F70CF60CF50CF40CFF3E031DF1
:101C4C001F2E0130A0002008A607031D2E2E2F2EBC
:101C5C001E2E472E20302602031C352E362E422EE9
:101C6C00E92D0130A0000310F40DF50DF60DF70D64
:101C7C00A00B392E0130A6022608031D462E472E36
:101C8C00372E250803194B2E4C2E572EF409F50927
:101C9C00F609F709F40A0319F50A0319F60A0319E8
:101CAC00F70A080083120313A400240803195F2EFB
:101CBC00602E742EF71F632E642E742E7409A600EA
:101CCC007509A7007609A8007709A900A60A0319C7
:101CDC00A70A0319A80A0319A90A7C2E7708A900D8
:101CEC007608A8007508A7007408A6007708760483
:101CFC0075047404031D832E842E8D2E0030F70082
:101D0C000030F6000030F5000030F400132F963050
:101D1C00A0002008A5009F2E0130A0002008A507D8
:101D2C0001300310A90CA80CA70CA60CFF3E031D38
:101D3C00972EFE302905031DA42EA52E922EC12E02
:101D4C000130A0002008A5070130A60700300318B9
:101D5C000130A707003003180130A8070030031822
:101D6C000130A90701300310A90CA80CA70CA60C74
:101D7C00FF3E031DB92EFF302905031DC62EC72EAD
:101D8C00A62ED32E0130A5020130A0000310A60D03
:101D9C00A70DA80DA90DA00BCC2EA81BD62ED72EA7
:101DAC00DD2E023025020318DC2EDD2EC82E251860
:101DBC00E02EE12EE92EFF30A605FF30A7057F307F
:101DCC00A805FF30A9050310A50C2508A000A1014A
:101DDC00A201A30118300310A00DA10DA20DA30D9B
:101DEC00FF3E031DF12E2008A6042108A70422089B
:101DFC00A8042308A90424080319052F062F0B2F68
:101E0C00F71F092F0A2F0B2FA9172908F7002808ED
:101E1C00F6002708F5002608F40008000A128A15B7
:101E2C0008250A128A150A128A1538250A128A15EB
:101E3C000A128A11F2270A128A1583120313A001BF
:101E4C00A00A01300A128A1584250A128A1501305B
:101E5C000A128A1588240A128A15831203139F14F6
:101E6C003B3083120313AD00A030AC002730AB0025
:101E7C00FE30AA007808F4007908F500F601F701A5
:101E8C0000300A128A1558260A128A15770883120E
:101E9C000313B1007608B0007508AF007408AE00EB
:101EAC000A128A1124200A128A15831203132D0890
:101EBC00C7002C08C6002B08C5002A08C4004030F7
:101ECC00CB00A030CA000030C9000030C8000A1294
:101EDC008A1564240A128A15831203134708CF004B
:101EEC004608CE004508CD004408CC004230AD0079
:101EFC004330AC008030AB00D230AA007808F4003C
:101F0C007908F500F601F70100300A128A155826F7
:101F1C000A128A15770883120313B1007608B000F1
:101F2C007508AF007408AE000A128A1124200A1238
:101F3C008A15831203132D08D3002C08D2002B080A
:101F4C00D1002A08D0000A128A1115260A128A1505
:101F5C00831203134F08EC004E08EB004D08EA0007
:101F6C004C08E9006C08F7006B08F6006A08F500ED
:101F7C006908F4000A128A15DC250A128A157708FA
:101F8C0083160313B3007608B2007508B100740809
:101F9C00B00083120313A001A00A02300A128A15A2
:101FAC0084250A128A15831203136C08F7006B0838
:101FBC00F6006A08F5006908F4000A128A15DC2597
:101FCC000A128A1574080A128A1546240A128A15EE
:101FDC00063083120313E8001330E700AD30E6003F
:101FEC00E60BF62FE70BF62FE80BF62F362F0A121F
:041FFC008A110C2812
:04400E00D420FF3F7C
:00000001FF
