:100000000A128A11ED2F00308A000408840A820740
:1000100000342034523448343A34203420342034EC
:1000200054343A342034203420344C3425343A3497
:100030000034253420342034203400344334203438
:080040002034003425340034A3
:1004F200F000700883120313880008000A128A11A0
:100502009B220A128A1183160313111408000A127D
:100512008A119B220A128A118316031311150800ED
:100522000A128A119B220A128A117008831203137B
:1005320093000800831603131419A02AA12A9B2AE8
:1005420011081F39031DA62AA72A9B2A080000307A
:100552000A128A11B5220A128A1101300A128A116C
:10056200B5220A128A110800F3008312031309103C
:1005720073080A128A1179220A128A11831203134A
:1005820089140B30F2006230F100F10BC62AF20B33
:10059200C62A00008312031389100800F2007208B1
:1005A200F1007108F3007308F1007108F40083127E
:1005B2000313091474080A128A1179220A128A1181
:1005C2008312031389141A30F100F10BE62A00009A
:1005D2008312031389100800F700F501F601042BBA
:1005E2007508770784000A128A1103200A128A11F9
:1005F2000A128A11CF220A128A110130F507031852
:10060200F60A0030F6077508770784000A128A1185
:1006120003200A128A11003A031D102B112BF12A12
:100622000800F401F501701C172B182B1E2B720801
:10063200F4070318F50A7308F50701300310F20DE9
:10064200F30DFF3E031D1F2B01300310F10CF00CC4
:10065200FF3E031D262B70087104031D312B322B24
:10066200142B7508F1007408F00008000A128A11B0
:100672009B220A128A118316031391150A128A11F8
:100682009B220A128A11831203131308F200F30148
:100692007208F4007308F5000A128A119B220A12EA
:1006A2008A1170037104031D572B582B5C2B831680
:1006B200031391125F2B83160313911611167508FB
:1006C200F1007408F000080028308312031394002C
:1006D200831603139101831203132D08B1002E0810
:1006E200B2002F08B3003008B40002300310B10D7D
:1006F200B20DB30DB40DFF3E031D772B3408F3008A
:100702003308F2003208F1003108F0000030F7003F
:100712007A30F6001230F5000030F4000A128A1125
:1007220015250A128A117008FF3E831603139300DF
:1007320094018715071608000130831603138500FC
:1007420086018701880189018312031389018501CA
:100752008601870188010130831603178800890109
:10076200831603130F178F160F160F149F131F12E2
:100772009F12831203131F083F3980389F00C33032
:100782009F051F14203083120313B500B50BC72B2E
:100792000000831203139F148B170B170030B00055
:1007A2000130AF008630AE00A030AD000A128A11CF
:1007B20065230A128A110800F501F6017008710416
:1007C2000319E42BE52B1C2CF701F70AF32B01305C
:1007D2000310F00DF10DFF3E031DE92B0130F40073
:1007E2007408F707F11FF62BF72BE82B01300310E3
:1007F200F50DF60DFF3E031DF82B71087302031D64
:10080200042C70087202031C072C082C0F2C700891
:10081200F2027108031CF303F30275140130031092
:10082200F10CF00CFF3E031D102C0130F702031DEA
:100832001B2C1C2CF72B7608F1007508F000080021
:1008420000300A128A1179220A128A113430F50014
:10085200F130F400F40B2B2CF50B2B2C302C303018
:100862000A128A11B5220A128A110D30F500FB30E4
:10087200F400F40B3A2CF50B3A2C3F2C30300A12D0
:100882008A11B5220A128A118530F400F40B472C22
:1008920030300A128A11B5220A128A113C300A1229
:1008A2008A11B5220A128A1108300A128A11B52257
:1008B2000A128A1101300A128A11B5220A128A1109
:1008C20006300A128A11B5220A128A110800F700AC
:1008D2007703031D6D2C6E2C912C74087F3EF5005E
:1008E2007508FA007A08F50004300310F50CFF3E93
:1008F200031D762C7508F6007608F8007A080F3981
:10090200F5007508F90078080A128A11B5220A1250
:100912008A1179080A128A11B5220A128A11B92C8F
:1009220002307706031D962C972CB92C7408BF3E13
:10093200F5007508FA007A08F50004300310F50C8A
:10094200FF3E031D9F2C7508F6007608F8007A0812
:10095200F039F5007508F90078080A128A11B522F3
:100962000A128A1179080A128A11B5220A128A1108
:10097200080083120313AE01FC1FC02CC12CC82C2B
:10098200FB09FC09FB0A0319FC0AAE01AE0AFA1FB5
:10099200CB2CCC2CD12CF909FA09F90A0319FA0A41
:1009A20079087A040319D62CD72C062DAD01AD0A8D
:1009B200E52C01300310F90DFA0DFF3E031DDB2C6F
:1009C2000130FD007D08AD07FA1FE82CE92CDA2C76
:1009D2007A087C02031DEF2C79087B02031CF22C9F
:1009E200F32CF92C7908FB027A08031CFC03FC02A5
:1009F20001300310FA0CF90CFF3E031DFA2C0130F2
:100A0200AD02031D052D062DE92C2E0803190A2D12
:100A12000B2D102DFB09FC09FB0A0319FC0A7C08AB
:100A2200FA007B08F90008000030FC000030FB00EF
:100A32000030FA000030F900730872047104700487
:100A42000319242D252D722DFD01FD0A352D0130AE
:100A5200F8000310F00DF10DF20DF30DF80B2A2D35
:100A62000130F8007808FD07F31F382D392D282DA5
:100A72000130F8000310F90DFA0DFB0DFC0DF80B17
:100A82003B2D73087702031D502D72087602031D59
:100A9200502D71087502031D502D70087402031C3D
:100AA200532D542D632D7008F4027108031C710F2D
:100AB200F5027208031C720FF6027308031C730F0F
:100AC200F702791401300310F30CF20CF10CF00C64
:100AD200FF3E031D642D0130FD02031D712D722D99
:100AE200392D7C08F3007B08F2007A08F1007908BE
:100AF200F0000800F601F11F7F2D802D872DF009EF
:100B0200F109F00A0319F10AF601F60AF31F8A2D18
:100B12008B2D942DF209F309F20A0319F30A01301D
:100B2200F4007408F606F701F8017008710403195D
:100B32009B2D9C2DD32DF501F50AAA2D0130031012
:100B4200F00DF10DFF3E031DA02D0130F4007408DD
:100B5200F507F11FAD2DAE2D9F2D01300310F70DBE
:100B6200F80DFF3E031DAF2D71087302031DBB2D4F
:100B720070087202031CBE2DBF2DC62D7008F20232
:100B82007108031CF303F302771401300310F10C14
:100B9200F00CFF3E031DC72D0130F502031DD22DBF
:100BA200D32DAE2D76080319D72DD82DDD2DF709BB
:100BB200F809F70A0319F80A7808F1007708F00033
:100BC20008007908FD007808FC006430F00000306D
:100BD200F1007D08F3007C08F2000A128A11DD237D
:100BE2000A128A117008FA007A0883120313A80005
:100BF2002808FA00FB017A08F0007B08F1009C301B
:100C0200F200FF30F3000A128A1112230A128A112B
:100C12007C087007FC007D0803187D0A7107FD003F
:100C22000A30F0000030F1007D08F3007C08F20089
:100C32000A128A11DD230A128A117008FA007A0850
:100C420083120313A7002708FA00FB017A08F000B9
:100C52007B08F100F630F200FF30F3000A128A112D
:100C620012230A128A117C087007FC007D080318FF
:100C72007D0A7107FD007C08FA007A0883120313CB
:100C8200A6002808303EFA007A08A8002708303E5D
:100C9200FA007A08A7002608303EFA007A08A60071
:100CA20008000A128A119D230A128A110A128A1155
:100CB20021240A128A110A128A11A8220A128A11FE
:100CC200F401F40A01300A128A1168240A128A1104
:100CD20001300A128A11ED220A128A110A128A11AD
:100CE2007F220A128A118130F0000030F1000A12CC
:100CF2008A1191220A128A11831203132308031DF7
:100D0200832E842E952E0030F000F1000A128A11F3
:100D120037230A128A11700883120313B6003608A9
:100D2200A400A301A30AA92E2303031D992E9A2E20
:100D3200A92E0030F000F1000A128A1137230A129C
:100D42008A11700883120313B6003608A500A301A6
:100D52000A128A1188220A128A110330831203139B
:100D6200B8000830B7007630B600B60BB62EB70B17
:100D7200B62EB80BB62E00000A128A117F220A1272
:100D82008A116130F0000030F1000A128A119122BA
:100D92000A128A110030F000F1000A128A11372378
:100DA2000A128A11710883120313A1007008A000AD
:100DB2000A128A1188220A128A110330831203133B
:100DC200B8000830B7007630B600B60BE62EB70B87
:100DD200E62EB80BE62E0000F401F40A02300A12E5
:100DE2008A1168240A128A110A30F9000030FA00C6
:100DF2000A30F0000030F100831203132508B60018
:100E0200B7013608F2003708F3000A128A117B256F
:100E12000A128A117108FC007008FB000A128A117A
:100E2200BA240A128A117908303E83120313B800D9
:100E32003808AC000A30F9000030FA002508B60084
:100E4200B7013608FB003708FC000A128A11BA24DF
:100E52000A128A117908303E83120313B800380847
:100E6200AB000A30F9000030FA000A30F00000301E
:100E7200F1002408B600B7013608F2003708F30083
:100E82000A128A117B250A128A117108FC00700865
:100E9200FB000A128A11BA240A128A117908303E1A
:100EA20083120313B8003808AA000A30F900003090
:100EB200FA002408B600B7013608FB003708FC0028
:100EC2000A128A11BA240A128A117908303E831250
:100ED2000313B8003808A9002C080A128A11CF227D
:100EE2000A128A11831203132B080A128A11CF22C3
:100EF2000A128A1111300A128A11ED220A128A117B
:100F0200831203132A080A128A11CF220A128A11A3
:100F12008312031329080A128A11CF220A128A1194
:100F2200DF300A128A11CF220A128A1116300A12EF
:100F32008A11ED220A128A11831203132108F90081
:100F42002008F8000A128A11E2250A128A11831275
:100F5200031328080A128A11CF220A128A11831255
:100F6200031327080A128A11CF220A128A11831246
:100F7200031326080A128A11CF220A128A111A3082
:100F82000A128A11ED220A128A11203083120313E7
:100F920024020318CD2FCE2FD32F0130B6003608EE
:100FA200A207DB2F21302402031CD82FD92FDB2FDD
:100FB2000130A2020B3083120313B8002630B700AF
:100FC2005D30B600B60BE32FB70BE32FB80BE32F60
:100FD2006F2E0A128A11002883120313A001A101A5
:100FE200A201A301A401A501A601A701A801A901CB
:0E0FF200AA01AB01AC0183010A128A11522E32
:04400E00D420FF3F7C
:00000001FF
