:100000000A128A11F32F00308A000408840A82073A
:1000100000342034533431343A3420342034203402
:10002000533432343A34203420342034533433348B
:100030003A3400342534203420342034003443341E
:100040002034203400343034303430340034B03490
:0200500000347A
:10078000F000700883120313880008000A128A110F
:10079000E2230A128A1183160313111408000A12A5
:1007A0008A11E2230A128A11831603131115080015
:1007B0000A128A11E2230A128A11700883120313A3
:1007C00093000800831603131419E72BE82BE22B80
:1007D00011081F39031DED2BEE2BE22B0800003012
:1007E0000A128A11FC230A128A1101300A128A1194
:1007F000FC230A128A110800F30083120313091064
:1008000073080A128A11C0230A128A118312031371
:1008100089140B30F2006230F100F10B0D2CF20B59
:100820000D2C00008312031389100800F2007208D7
:10083000F1007108F3007308F1007108F4008312ED
:100840000313091474080A128A11C0230A128A11A8
:100850008312031389141A30F100F10B2D2C0000C0
:100860008312031389100800F700F501F6014B2CE1
:100870007508770784000A128A1103200A128A1168
:100880000A128A1116240A128A110130F507031878
:10089000F60A0030F6077508770784000A128A11F5
:1008A00003200A128A11003A031D572C582C382CA9
:1008B00008000A128A11E2230A128A11831603130E
:1008C00091150A128A11E2230A128A118312031364
:1008D0001308F200F3017208F4007308F5000A121D
:1008E0008A11E2230A128A1170037104031D792C04
:1008F0007A2C7E2C831603139112812C83160313FA
:10090000911611167508F1007408F00008002830DF
:1009100083120313940083160313910183120313AC
:100920002008A4002108A5002208A6002308A7008B
:1009300002300310A40DA50DA60DA70DFF3E031D4B
:10094000992C2708F3002608F2002508F100240856
:10095000F0000030F7007A30F6001230F500003079
:10096000F4000A128A11F3250A128A117008FF3E58
:1009700083160313930094018715071608000130AE
:10098000831603138500860187018801890183127C
:1009900003138901850186018701880101308316CF
:1009A000031788008901831603130F178F160F167C
:1009B0000F149F131F129F12831203131F083F3936
:1009C00080389F00C3309F051F142030831203130B
:1009D000A800A80BE92C0000831203139F148B17A7
:1009E0000B170030A3000130A2008630A100A03018
:1009F000A0000A128A1187240A128A110800003006
:100A00000A128A11C0230A128A113430F500F1301B
:100A1000F400F40B092DF50B092D0E2D30300A12C0
:100A20008A11FC230A128A110D30F500FB30F40004
:100A3000F40B182DF50B182D1D2D30300A128A11CC
:100A4000FC230A128A118530F400F40B252D303076
:100A50000A128A11FC230A128A113C300A128A11E6
:100A6000FC230A128A1108300A128A11FC230A1286
:100A70008A1101300A128A11FC230A128A110630E7
:100A80000A128A11FC230A128A110800F700770360
:100A9000031D4B2D4C2D6F2D74087F3EF5007508FE
:100AA000FA007A08F50004300310F50CFF3E031D30
:100AB000542D7508F6007608F8007A080F39F5000D
:100AC0007508F90078080A128A11FC230A128A11A3
:100AD00079080A128A11FC230A128A11972D023012
:100AE0007706031D742D752D972D7408BF3EF500F4
:100AF0007508FA007A08F50004300310F50CFF3E83
:100B0000031D7D2D7508F6007608F8007A08F03987
:100B1000F5007508F90078080A128A11FC230A12F8
:100B20008A1179080A128A11FC230A128A11080014
:100B300083120313A101FC1F9E2D9F2DA62DFB09DF
:100B4000FC09FB0A0319FC0AA101A10AFA1FA92D3D
:100B5000AA2DAF2DF909FA09F90A0319FA0A790839
:100B60007A040319B42DB52DE42DA001A00AC32DDC
:100B700001300310F90DFA0DFF3E031DB92D0130B0
:100B8000FD007D08A007FA1FC62DC72DB82D7A08D5
:100B90007C02031DCD2D79087B02031CD02DD12DA5
:100BA000D72D7908FB027A08031CFC03FC020130F4
:100BB0000310FA0CF90CFF3E031DD82D0130A002E2
:100BC000031DE32DE42DC72D21080319E82DE92D80
:100BD000EE2DFB09FC09FB0A0319FC0A7C08FA004C
:100BE0007B08F90008000030FC000030FB000030FA
:100BF000FA000030F90073087204710470040319DC
:100C0000022E032E502EFD01FD0A132E0130F80096
:100C10000310F00DF10DF20DF30DF80B082E01305D
:100C2000F8007808FD07F31F162E172E062E013048
:100C3000F8000310F90DFA0DFB0DFC0DF80B192E41
:100C400073087702031D2E2E72087602031D2E2EC6
:100C500071087502031D2E2E70087402031C312EBC
:100C6000322E412E7008F4027108031C710FF50238
:100C70007208031C720FF6027308031C730FF7024D
:100C8000791401300310F30CF20CF10CF00CFF3E60
:100C9000031D422E0130FD02031D4F2E502E172E34
:100CA0007C08F3007B08F2007A08F1007908F00074
:100CB0000800F601F11F5D2E5E2E652EF009F10988
:100CC000F00A0319F10AF601F60AF31F682E692EDD
:100CD000722EF209F309F20A0319F30A0130F40043
:100CE0007408F606F701F801700871040319792EEB
:100CF0007A2EB12EF501F50A882E01300310F00D81
:100D0000F10DFF3E031D7E2E0130F4007408F5073F
:100D1000F11F8B2E8C2E7D2E01300310F70DF80D58
:100D2000FF3E031D8D2E71087302031D992E70085E
:100D30007202031C9C2E9D2EA42E7008F2027108D4
:100D4000031CF303F302771401300310F10CF00CD1
:100D5000FF3E031DA52E0130F502031DB02EB12E5E
:100D60008C2E76080319B52EB62EBB2EF709F8097E
:100D7000F70A0319F80A7808F1007708F00008006C
:100D80000A128A11BF240A128A110A128A11FF2438
:100D90000A128A110A128A11EF230A128A11F40127
:100DA000F40A01300A128A1146250A128A1101300A
:100DB0000A128A1134240A128A110A128A11C623CD
:100DC0000A128A118130F0000030F1000A128A11F3
:100DD000D8230A128A11831203132C08031DF12E43
:100DE000F22E032F0030F000F1000A128A1159246C
:100DF0000A128A11700883120313A9002908AD0092
:100E0000AC01AC0A172F2C03031D072F082F172F37
:100E10000030F000F1000A128A1159240A128A11D6
:100E2000700883120313A9002908AE00AC010A124E
:100E30008A11CF230A128A11033083120313AB00E5
:100E40000830AA007630A900A90B242FAA0B242F62
:100E5000AB0B242F0000F401F40A02300A128A11AD
:100E600046250A128A110A30F9000030FA000A30C9
:100E7000F0000030F100831203132E08A900AA012C
:100E80002908F2002A08F3000A128A1159260A12C8
:100E90008A117108FC007008FB000A128A1198255B
:100EA0000A128A117908303E83120313AB002B0813
:100EB000B2000A30F9000030FA002E08A900AA0199
:100EC0002908FB002A08FC000A128A1198250A1238
:100ED0008A117908303E83120313AB002B08B1004E
:100EE0000A30F9000030FA000A30F0000030F1005A
:100EF0002D08A900AA012908F2002A08F3000A1205
:100F00008A1159260A128A117108FC007008FB0028
:100F10000A128A1198250A128A117908303E831222
:100F20000313AB002B08B0000A30F9000030FA00C0
:100F30002D08A900AA012908FB002A08FC000A12B2
:100F40008A1198250A128A117908303E83120313F8
:100F5000AB002B08AF0032080A128A1116240A12BD
:100F60008A118312031331080A128A1116240A12F5
:100F70008A1112300A128A1134240A128A11831239
:100F8000031330080A128A1116240A128A118312D6
:100F900003132F080A128A1116240A128A111F300D
:100FA0000A128A1116240A128A1117300A128A119B
:100FB00034240A128A111B300A128A1134240A12AC
:100FC0008A110B3083120313AB002630AA005D3068
:100FD000A900A90BE92FAA0BE92FAB0BE92FDD2EF6
:100FE0000A128A11002883120313AC01AD01AE016D
:100FF000AF01B001B101B20183010A128A11C02E02
:04400E00D420FF3F7C
:00000001FF
