:100000000A128A11F32F00308A000408840A82073A
:1000100000342034533431343A3420342034203402
:10002000533432343A34203420342034533433348B
:100030003A3400342534203420342034003443341E
:100040002034203400343034303430340034303410
:06005000303431340034AD
:10075600F000700883120313880008000A128A1139
:10076600CD230A128A1183160313111408000A12E4
:100776008A11CD230A128A11831603131115080054
:100786000A128A11CD230A128A11700883120313E2
:1007960093000800831603131419D22BD32BCD2BE9
:1007A60011081F39031DD82BD92BCD2B080000307B
:1007B6000A128A11E7230A128A1101300A128A11D3
:1007C600E7230A128A110800F300831203130910A3
:1007D60073080A128A11AB230A128A1183120313B1
:1007E60089140B30F2006230F100F10BF82BF20B9A
:1007F600F82B00008312031389100800F200720818
:10080600F1007108F3007308F1007108F400831217
:100816000313091474080A128A11AB230A128A11E7
:100826008312031389141A30F100F10B182C0000FF
:100836008312031389100800F700F501F601362C20
:100846007508770784000A128A1103200A128A1192
:100856000A128A1101240A128A110130F5070318B7
:10086600F60A0030F6077508770784000A128A111F
:1008760003200A128A11003A031D422C432C232C12
:1008860008000A128A11CD230A128A11831603134D
:1008960091150A128A11CD230A128A1183120313A3
:1008A6001308F200F3017208F4007308F5000A1247
:1008B6008A11CD230A128A1170037104031D642C58
:1008C600652C692C8316031391126C2C8316031363
:1008D600911611167508F1007408F000080028300A
:1008E60083120313940083160313910183120313D7
:1008F6002008A4002108A5002208A6002308A700B6
:1009060002300310A40DA50DA60DA70DFF3E031D75
:10091600842C2708F3002608F2002508F100240895
:10092600F0000030F7007A30F6001230F5000030A3
:10093600F4000A128A11DE250A128A117008FF3E97
:1009460083160313930094018715071608000130D8
:1009560083160313850086018701880189018312A6
:1009660003138901850186018701880101308316F9
:10097600031788008901831603130F178F160F16A6
:100986000F149F131F129F12831203131F083F3960
:1009960080389F00C3309F051F1420308312031335
:1009A600A800A80BD42C0000831203139F148B17E6
:1009B6000B170030A3000130A2008630A100A03042
:1009C600A0000A128A1172240A128A110800003045
:1009D6000A128A11AB230A128A113430F500F1305B
:1009E600F400F40BF42CF50BF42CF92C30300A122D
:1009F6008A11E7230A128A110D30F500FB30F40044
:100A0600F40B032DF50B032D082D30300A128A1135
:100A1600E7230A128A118530F400F40B102D3030CA
:100A26000A128A11E7230A128A113C300A128A1125
:100A3600E7230A128A1108300A128A11E7230A12DA
:100A46008A1101300A128A11E7230A128A11063026
:100A56000A128A11E7230A128A110800F70077039F
:100A6600031D362D372D5A2D74087F3EF500750867
:100A7600FA007A08F50004300310F50CFF3E031D5A
:100A86003F2D7508F6007608F8007A080F39F5004C
:100A96007508F90078080A128A11E7230A128A11E2
:100AA60079080A128A11E7230A128A11822D023066
:100AB6007706031D5F2D602D822D7408BF3EF5005D
:100AC6007508FA007A08F50004300310F50CFF3EAD
:100AD600031D682D7508F6007608F8007A08F039C7
:100AE600F5007508F90078080A128A11E7230A1238
:100AF6008A1179080A128A11E7230A128A11080054
:100B060083120313A101FC1F892D8A2D912DFB0948
:100B1600FC09FB0A0319FC0AA101A10AFA1F942D7C
:100B2600952D9A2DF909FA09F90A0319FA0A79088D
:100B36007A0403199F2DA02DCF2DA001A00AAE2D5A
:100B460001300310F90DFA0DFF3E031DA42D0130EF
:100B5600FD007D08A007FA1FB12DB22DA32D7A083E
:100B66007C02031DB82D79087B02031CBB2DBC2D0E
:100B7600C22D7908FB027A08031CFC03FC02013033
:100B86000310FA0CF90CFF3E031DC32D0130A00221
:100B9600031DCE2DCF2DB22D21080319D32DD42D13
:100BA600D92DFB09FC09FB0A0319FC0A7C08FA008B
:100BB6007B08F90008000030FC000030FB00003024
:100BC600FA000030F9007308720471047004031906
:100BD600ED2DEE2D3B2EFD01FD0AFE2D0130F80018
:100BE6000310F00DF10DF20DF30DF80BF32D01309E
:100BF600F8007808FD07F31F012E022EF12D0130B3
:100C0600F8000310F90DFA0DFB0DFC0DF80B042E80
:100C160073087702031D192E72087602031D192E1A
:100C260071087502031D192E70087402031C1C2E10
:100C36001D2E2C2E7008F4027108031C710FF5028C
:100C46007208031C720FF6027308031C730FF70277
:100C5600791401300310F30CF20CF10CF00CFF3E8A
:100C6600031D2D2E0130FD02031D3A2E3B2E022EB2
:100C76007C08F3007B08F2007A08F1007908F0009E
:100C86000800F601F11F482E492E502EF009F109F1
:100C9600F00A0319F10AF601F60AF31F532E542E31
:100CA6005D2EF209F309F20A0319F30A0130F40082
:100CB6007408F606F701F801700871040319642E2A
:100CC600652E9C2EF501F50A732E01300310F00DEA
:100CD600F10DFF3E031D692E0130F4007408F5077F
:100CE600F11F762E772E682E01300310F70DF80DC2
:100CF600FF3E031D782E71087302031D842E7008B3
:100D06007202031C872E882E8F2E7008F20271083D
:100D1600031CF303F302771401300310F10CF00CFB
:100D2600FF3E031D902E0130F502031D9B2E9C2EC7
:100D3600772E76080319A02EA12EA62EF709F809FC
:100D4600F70A0319F80A7808F1007708F000080096
:100D56000A128A11AA240A128A110A128A11EA248C
:100D66000A128A110A128A11DA230A128A11F40166
:100D7600F40A01300A128A1131250A128A11013049
:100D86000A128A111F240A128A110A128A11B12321
:100D96000A128A118130F0000030F1000A128A111D
:100DA600C3230A128A11831203132C08031DDC2E97
:100DB600DD2EEE2E0030F000F1000A128A114424D6
:100DC6000A128A11700883120313A9002908AD00BC
:100DD600AC01AC0A022F2C03031DF22EF32E022FB8
:100DE6000030F000F1000A128A1144240A128A1116
:100DF600700883120313A9002908AE00AC010A1279
:100E06008A11BA230A128A11033083120313AB0024
:100E16000830AA007630A900A90B0F2FAA0B0F2FB6
:100E2600AB0B0F2F0000F401F40A02300A128A11EC
:100E360031250A128A110A30F9000030FA000A3008
:100E4600F0000030F100831203132E08A900AA0156
:100E56002908F2002A08F3000A128A1144260A1207
:100E66008A117108FC007008FB000A128A1183259A
:100E76000A128A117908303E83120313AB002B083D
:100E8600B2000A30F9000030FA002E08A900AA01C3
:100E96002908FB002A08FC000A128A1183250A1277
:100EA6008A117908303E83120313AB002B08B10078
:100EB6000A30F9000030FA000A30F0000030F10084
:100EC6002D08A900AA012908F2002A08F3000A122F
:100ED6008A1144260A128A117108FC007008FB0068
:100EE6000A128A1183250A128A117908303E831262
:100EF6000313AB002B08B0000A30F9000030FA00EB
:100F06002D08A900AA012908FB002A08FC000A12DC
:100F16008A1183250A128A117908303E8312031337
:100F2600AB002B08AF0032080A128A1101240A12FC
:100F36008A118312031331080A128A1101240A1234
:100F46008A1112300A128A111F240A128A11831278
:100F5600031330080A128A1101240A128A11831215
:100F660003132F080A128A1101240A128A11DF308C
:100F76000A128A1101240A128A1117300A128A11DA
:100F86001F240A128A112030831203132D0203181C
:100F9600CD2FCE2FD52F1B300A128A111F240A12ED
:100FA6008A11E12F21302D02031CDA2FDB2FE12FCE
:100FB6001F300A128A111F240A128A110B3083125B
:100FC6000313AB002630AA005D30A900A90BE92F58
:100FD600AA0BE92FAB0BE92FC82E0A128A1100289B
:100FE60083120313AC01AD01AE01AF01B001B10133
:0A0FF600B20183010A128A11AB2E2A
:04400E00D420FF3F7C
:00000001FF
