:100000000A128A11EC2F00308A000408840A820741
:1000100000342034523448343A34203420342034EC
:1000200054343A342034203420344C3425343A3497
:100030000034443449345334503445344E3453340A
:1000400041344E3444344F340034203443344F343C
:100050004D344934443441342E342E342E3400345B
:1000600025342034203420340034433420342034E8
:06007000003425340034C9
:1002AE00F000700883120313880008000A128A11E6
:1002BE0079210A128A1183160313111408000A12E7
:1002CE008A1179210A128A11831603131115080057
:1002DE000A128A1179210A128A11700883120313E5
:1002EE00930008008316031314197E297F29792998
:1002FE0011081F39031D842985297929080000302A
:10030E000A128A1193210A128A1101300A128A11D5
:10031E0093210A128A110800F300831203130910A5
:10032E0073080A128A1157210A128A1183120313B3
:10033E0089140B30F2006230F100F10BA429F20B9C
:10034E00A42900008312031389100800F20072081A
:10035E00F1007108F3007308F1007108F4008312C4
:10036E000313091474080A128A1157210A128A11EA
:10037E008312031389141A30F100F10BC429000003
:10038E008312031389100800F700F501F601E22924
:10039E007508770784000A128A1103200A128A113F
:1003AE000A128A11AD210A128A110130F5070318BB
:1003BE00F60A0030F6077508770784000A128A11CC
:1003CE0003200A128A11003A031DEE29EF29CF29C4
:1003DE000800F401F501701CF529F629FC297208B4
:1003EE00F4070318F50A7308F50701300310F20D30
:1003FE00F30DFF3E031DFD2901300310F10CF00C2F
:10040E00FF3E031D042A70087104031D0F2A102AD3
:10041E00F2297508F1007408F00008008316031322
:10042E0085018601870188018901831203138901E1
:10043E0085018601870188018316031788018901CA
:10044E00831603130F178F160F160F148B170B1718
:10045E00003083120313B1000130B0008630AF00BC
:10046E00A030AE000A128A116D220A128A110800FB
:10047E000A128A1179210A128A1183160313911511
:10048E000A128A1179210A128A1183120313130890
:10049E00F200F3017208F4007308F5000A128A11D3
:1004AE0079210A128A1170037104031D5F2A602AD2
:1004BE00642A831603139112672A83160313911667
:1004CE0011167508F1007408F00008002830831228
:1004DE0003139400831603139101831203132E0842
:1004EE00B2002F08B3003008B4003108B500023056
:1004FE000310B20DB30DB40DB50DFF3E031D7F2AD3
:10050E003508F3003408F2003308F1003208F00029
:10051E000030F7007A30F6001230F5000030F400AB
:10052E000A128A11DD230A128A117008FF3E831601
:10053E00031393009401871507160800F501F601C1
:10054E00700871040319AC2AAD2AE42AF701F70AE0
:10055E00BB2A01300310F00DF10DFF3E031DB12A31
:10056E000130F4007408F707F11FBE2ABF2AB02A23
:10057E0001300310F50DF60DFF3E031DC02A710864
:10058E007302031DCC2A70087202031CCF2AD02AD4
:10059E00D72A7008F2027108031CF303F3027514D4
:1005AE0001300310F10CF00CFF3E031DD82A013070
:1005BE00F702031DE32AE42ABF2A7608F100750824
:1005CE00F000080000300A128A1157210A128A110F
:1005DE003430F500F130F400F40BF32AF50BF32A66
:1005EE00F82A30300A128A1193210A128A110D301C
:1005FE00F500FB30F400F40B022BF50B022B072B4E
:10060E0030300A128A1193210A128A118530F400B1
:10061E00F40B0F2B30300A128A1193210A128A1111
:10062E003C300A128A1193210A128A1108300A12DA
:10063E008A1193210A128A1101300A128A1193210A
:10064E000A128A1106300A128A1193210A128A118D
:10065E000800F7007703031D352B362B592B740832
:10066E007F3EF5007508FA007A08F5000430031095
:10067E00F50CFF3E031D3E2B7508F6007608F800BC
:10068E007A080F39F5007508F90078080A128A11F0
:10069E0093210A128A1179080A128A1193210A12D9
:1006AE008A11812B02307706031D5E2B5F2B812B67
:1006BE007408BF3EF5007508FA007A08F50004309C
:1006CE000310F50CFF3E031D672B7508F600760828
:1006DE00F8007A08F039F5007508F90078080A1262
:1006EE008A1193210A128A1179080A128A1193210A
:1006FE000A128A11080083120313AF01FC1F882B04
:10070E00892B902BFB09FC09FB0A0319FC0AAF018C
:10071E00AF0AFA1F932B942B992BF909FA09F90AB0
:10072E000319FA0A79087A0403199E2B9F2BCE2BF4
:10073E00AE01AE0AAD2B01300310F90DFA0DFF3EDE
:10074E00031DA32B0130FD007D08AE07FA1FB02B51
:10075E00B12BA22B7A087C02031DB72B79087B02E2
:10076E00031CBA2BBB2BC12B7908FB027A08031C86
:10077E00FC03FC0201300310FA0CF90CFF3E031DC2
:10078E00C22B0130AE02031DCD2BCE2BB12B2F0869
:10079E000319D22BD32BD82BFB09FC09FB0A031907
:1007AE00FC0A7C08FA007B08F90008000030FC0007
:1007BE000030FB000030FA000030F90073087204BC
:1007CE00710470040319EC2BED2B3A2CFD01FD0A7C
:1007DE00FD2B0130F8000310F00DF10DF20DF30DAD
:1007EE00F80BF22B0130F8007808FD07F31F002CF0
:1007FE00012CF02B0130F8000310F90DFA0DFB0D52
:10080E00FC0DF80B032C73087702031D182C7208CD
:10081E007602031D182C71087502031D182C700822
:10082E007402031C1B2C1C2C2B2C7008F402710858
:10083E00031C710FF5027208031C720FF602730887
:10084E00031C730FF702791401300310F30CF20C32
:10085E00F10CF00CFF3E031D2C2C0130FD02031D8C
:10086E00392C3A2C012C7C08F3007B08F2007A0814
:10087E00F1007908F0000800F601F11F472C482C12
:10088E004F2CF009F109F00A0319F10AF601F60AE4
:10089E00F31F522C532C5C2CF209F309F20A0319A4
:1008AE00F30A0130F4007408F606F701F801700837
:1008BE0071040319632C642C9B2CF501F50A722C20
:1008CE0001300310F00DF10DFF3E031D682C0130B9
:1008DE00F4007408F507F11F752C762C672C013087
:1008EE000310F70DF80DFF3E031D772C71087302F0
:1008FE00031D832C70087202031C862C872C8E2CF1
:10090E007008F2027108031CF303F302771401302E
:10091E000310F10CF00CFF3E031D8F2C0130F5027D
:10092E00031D9A2C9B2C762C760803199F2CA02C39
:10093E00A52CF709F809F70A0319F80A7808F10047
:10094E007708F00008007908FD007808FC00643094
:10095E00F0000030F1007D08F3007C08F2000A126E
:10096E008A11A5220A128A117008FA007A088312D7
:10097E000313A9002908FA00FB017A08F0007B088E
:10098E00F1009C30F200FF30F3000A128A11F021C0
:10099E000A128A117C087007FC007D0803187D0A74
:1009AE007107FD000A30F0000030F1007D08F30001
:1009BE007C08F2000A128A11A5220A128A11700806
:1009CE00FA007A0883120313A8002808FA00FB0124
:1009DE007A08F0007B08F100F630F200FF30F300E9
:1009EE000A128A11F0210A128A117C087007FC0083
:1009FE007D0803187D0A7107FD007C08FA007A084D
:100A0E0083120313A7002908303EFA007A08A900C2
:100A1E002808303EFA007A08A8002708303EFA006F
:100A2E007A08A70008000A128A1115220A128A11E2
:100A3E000A128A11E9220A128A110A128A118621D1
:100A4E000A128A11F401F40A01300A128A113023B3
:100A5E000A128A1101300A128A11CB210A128A1146
:100A6E000A128A115D210A128A118130F0000030BB
:100A7E00F1000A128A116F210A128A1183120313CE
:100A8E002408031D4B2D4C2D5D2D0030F000F10080
:100A9E000A128A113F220A128A1170088312031356
:100AAE00B6003608A500A401A40A712D2403031D67
:100ABE00612D622D712D0030F000F1000A128A11A5
:100ACE003F220A128A11700883120313B6003608E9
:100ADE00A600A4010A128A1166210A128A11033095
:100AEE0083120313B8000830B7007630B600B60B89
:100AFE007E2DB70B7E2DB80B7E2D00000A128A11AB
:100B0E005D210A128A116130F0000030F1000A12E4
:100B1E008A116F210A128A110030F000F1000A12B8
:100B2E008A113F220A128A11710883120313A1003F
:100B3E007008A0000A128A1166210A128A11033067
:100B4E0083120313B8000830B7007630B600B60B28
:100B5E00AE2DB70BAE2DB80BAE2D0000F401F40A7E
:100B6E0002300A128A1130230A128A110A30F90051
:100B7E000030FA000A30F0000030F1008312031347
:100B8E002608B600B7013608F2003708F3000A123D
:100B9E008A1143240A128A117108FC007008FB00A6
:100BAE000A128A1182230A128A117908303E8312A0
:100BBE000313B8003808AD000A30F9000030FA000F
:100BCE002608B600B7013608FB003708FC000A12EB
:100BDE008A1182230A128A117908303E8312031376
:100BEE00B8003808AC000A30F9000030FA000A30BC
:100BFE00F0000030F1002508B600B7013608F2000B
:100C0E003708F3000A128A1143240A128A11710856
:100C1E00FC007008FB000A128A1182230A128A1144
:100C2E007908303E83120313B8003808AB000A303F
:100C3E00F9000030FA002508B600B7013608FB00AF
:100C4E003708FC000A128A1182230A128A117908C7
:100C5E00303E83120313B8003808AA002D080A127A
:100C6E008A11AD210A128A11831203132C080A125B
:100C7E008A11AD210A128A1128300A128A11CB214B
:100C8E000A128A11831203132B080A128A11AD213C
:100C9E000A128A11831203132A080A128A11AD212D
:100CAE000A128A11DF300A128A11AD210A128A1134
:100CBE002D300A128A11CB210A128A1183120313C4
:100CCE002108F9002008F8000A128A11AA240A1233
:100CDE008A118312031329080A128A11AD210A12EE
:100CEE008A118312031328080A128A11AD210A12DF
:100CFE008A118312031327080A128A11AD210A12D0
:100D0E008A1131300A128A11CB210A128A1123302C
:100D1E00831203132502031C952E962EB02E230349
:100D2E00031D9A2E9B2EB02E85151F308312031392
:100D3E00B8007130B7001D30B600B60BA42EB70B3D
:100D4E00A42EB80BA42EAB2E831203138511A30170
:100D5E00372D233025020318B52EB62EBF2E2308AD
:100D6E00031DBA2EBB2EBF2E8511A301A30A372D4C
:100D7E002208031DC32EC42EE62E05140630831240
:100D8E000313B7002F30B600B60BCB2EB70BCB2EFE
:100D9E00D02E8312031305100B3083120313B800E9
:100DAE002630B7005D30B600B60BDB2EB70BDB2E50
:100DBE00B80BDB2E83120313A201A20A372D2108D2
:100DCE00803AFF0080307F02031DEF2E1530200287
:100DDE000318F22EF32E682F831203132203031D22
:100DEE00F92EFA2E682FA201051403308312031375
:100DFE00B7009730B600B60B022FB70B022F831237
:100E0E00031305100B3083120313B8002630B700FE
:100E1E005D30B600B60B112FB70B112FB80B112F7B
:100E2E000A128A1186210A128A11F401F40A01307B
:100E3E000A128A1130230A128A1111300A128A11EB
:100E4E00CB210A128A11F401F40A02300A128A1115
:100E5E0030230A128A111D300A128A11CB210A126E
:100E6E008A11333083120313B800BB30B700DF3062
:100E7E00B600B60B402FB70B402FB80B402F0A12FF
:100E8E008A1186210A128A11F401F40A01300A121B
:100E9E008A1130230A128A1101300A128A11CB21CB
:100EAE000A128A11063083120313B8001330B700EA
:100EBE00AD30B600B60B612FB70B612FB80B612F9B
:100ECE00372D831203132108803AFF0080307F02F2
:100EDE00031D732F51302002031C762F772FE82F1E
:100EEE00831203132203031D7D2F7E2FE82FA201F1
:100EFE000514033083120313B7009730B600B60BF8
:100F0E00862FB70B862F83120313051034308312EE
:100F1E000313B700F130B600B60B932FB70B932F18
:100F2E000B3083120313B8002630B7005D30B600C5
:100F3E00B60B9F2FB70B9F2FB80B9F2F0A128A113C
:100F4E0086210A128A11F401F40A01300A128A115A
:100F5E0030230A128A1111300A128A11CB210A1279
:100F6E008A11F401F40A02300A128A1130230A128D
:100F7E008A111D300A128A11CB210A128A113330BE
:100F8E0083120313B800BB30B700DF30B600B60BC8
:100F9E00CE2FB70BCE2FB80BCE2F0A128A11862169
:100FAE000A128A11F401F40A01300A128A1130234E
:100FBE000A128A1101300A128A11CB210A128A11E1
:100FCE00592F372D0A128A11002883120313A001FC
:100FDE00A101A201A301A401A501A601A701A801D7
:100FEE00A901AA01AB01AC01AD0183010A128A115C
:020FFE001A2DAA
:04400E00D420FF3F7C
:00000001FF
