:060000000A128A110E280D
:10000800FE00030EF2000408F3000A08F4000A12C6
:100018008A114D2E0A128A111128F601F701F801EA
:1000280083120313B801B901BA01BB01BC01BD01B8
:10003800BE01BF01C001C101C201C301C401C501A4
:1000480083010A128A1128280A128A119E250A1287
:100058008A110A128A110C250A128A110A128A11A7
:1000680043270A128A1183120313A301A30A01303A
:100078000A128A11B4240A128A1101300A128A114A
:10008800B7260A128A110A128A1170270A128A11CF
:10009800813083120313A0000030A1000A128A11D4
:1000A8005D270A128A11831203133C08031D5D2879
:1000B8005E286F280030A000A1000A128A11852648
:1000C8000A128A11831203132008B5003508BD00EF
:1000D800BC01BC0A83283C03031D732874288328A9
:1000E8000030A000A1000A128A1185260A128A117E
:1000F800831203132008B5003508BE00BC010A129C
:100108008A1167270A128A11033083120313B70072
:100118000830B6007630B500B50B9028B60B90289D
:10012800B70B902800000A128A1170270A128A1148
:10013800613083120313A0000030A1000A128A1153
:100148005D270A128A11003083120313A000A10050
:100158000A128A1185260A128A11831203132108AA
:10016800B9002008B8000A128A1167270A128A11F2
:10017800033083120313B7000830B6007630B50099
:10018800B50BC428B60BC428B70BC42800008312CB
:100198000313A301A30A02300A128A11B4240A1213
:1001A8008A110A3083120313A8000030A9000A300C
:1001B800A0000030A1003E08B500B6013508A20035
:1001C8003608A3000A128A1188230A128A11831298
:1001D80003132108AB002008AA000A128A11592427
:1001E8000A128A11831203132808303EB700370811
:1001F800C5000A30A8000030A9003E08B500B601C5
:100208003508AA003608AB000A128A1159240A12C6
:100218008A11831203132808303EB7003708C40038
:100228000A30A8000030A9000A30A0000030A10060
:100238003D08B500B6013508A2003608A3000A1229
:100248008A1188230A128A11831203132108AB002A
:100258002008AA000A128A1159240A128A11831244
:1002680003132808303EB7003708C3000A30A80037
:100278000030A9003D08B500B6013508AA003608C7
:10028800AB000A128A1159240A128A118312031325
:100298002808303EB7003708C20045080A128A11FC
:1002A80007270A128A118312031344080A128A11B3
:1002B80007270A128A1128300A128A11B7260A1249
:1002C8008A118312031343080A128A1107270A1294
:1002D8008A118312031342080A128A1107270A1285
:1002E8008A11DF300A128A1107270A128A112D3063
:1002F8000A128A11B7260A128A11831203133908BF
:10030800A8003808A7000A128A1114230A128A11B1
:100318008312031341080A128A1107270A128A1145
:100328008312031340080A128A1107270A128A1136
:10033800831203133F080A128A1107270A128A1127
:1003480031300A128A11B7260A128A112330831211
:1003580003133D02031CB129B229CC293B03031D19
:10036800B629B729CC2985151F3083120313B70086
:100378007130B6001D30B500B50BC029B60BC029C9
:10038800B70BC029C729831203138511BB0147285E
:1003980023303D020318D129D229DB293B08031D4C
:1003A800D629D729DB298511BB01BB0A47283A087A
:1003B800031DDF29E029022A0514063083120313DE
:1003C800B6002F30B500B50BE729B60BE729EC29A5
:1003D8008312031305100B3083120313B700263062
:1003E800B6005D30B500B50BF729B60BF729B70B8A
:1003F800F72983120313BA01BA0A47283908803A41
:10040800FF0080307F02031D0B2A153038020318C5
:100418000E2A0F2A8A2A831203133A03031D152A68
:10042800162A8A2ABA010514033083120313B60068
:100438009730B500B50B1E2AB60B1E2A831203137C
:1004480005100B3083120313B7002630B6005D3059
:10045800B500B50B2D2AB60B2D2AB70B2D2A0A127B
:100468008A1143270A128A1183120313A301A30ACC
:1004780001300A128A11B4240A128A1111300A12A0
:100488008A11B7260A128A1183120313A301A30A39
:1004980002300A128A11B4240A128A111D300A1273
:1004A8008A11B7260A128A11333083120313B70050
:1004B800BB30B600DF30B500B50B602AB60B602A3A
:1004C800B70B602A0A128A1143270A128A1183126B
:1004D8000313A301A30A01300A128A11B4240A12D1
:1004E8008A1101300A128A11B7260A128A110630B7
:1004F80083120313B7001330B600AD30B500B50B47
:10050800832AB60B832AB70B832A4728831203133F
:100518003908803AFF0080307F02031D952A513048
:100528003802031C982A992A102B831203133A03C2
:10053800031D9F2AA02A102BBA0105140330831229
:100548000313B6009730B500B50BA82AB60BA82A36
:10055800831203130510343083120313B600F130ED
:10056800B500B50BB52AB60BB52A0B3083120313A9
:10057800B7002630B6005D30B500B50BC12AB60B02
:10058800C12AB70BC12A0A128A1143270A128A11F3
:1005980083120313A301A30A01300A128A11B42497
:1005A8000A128A1111300A128A11B7260A128A1100
:1005B80083120313A301A30A02300A128A11B42476
:1005C8000A128A111D300A128A11B7260A128A11D4
:1005D800333083120313B700BB30B600DF30B500E9
:1005E800B50BF42AB60BF42AB70BF42A0A128A11AF
:1005F80043270A128A1183120313A301A30A0130A5
:100608000A128A11B4240A128A1101300A128A11B4
:10061800B7260A128A117B2A47280A128A110E283D
:10062800831203132808AC002708AB006430A0002D
:100638000030A1002C08A3002B08A2000A128A117E
:1006480058250A128A11831203132008A9002908C1
:10065800C1004108A900AA012908A0002A08A10090
:100668009C30A200FF30A3000A128A11E0260A1269
:100678008A11831203132B082007AB002C080318D8
:100688002C0A2107AC000A30A0000030A1002C0879
:10069800A3002B08A2000A128A1158250A128A11EF
:1006A800831203132008A9002908C0004008A900E4
:1006B800AA012908A0002A08A100F630A200FF30EC
:1006C800A3000A128A11E0260A128A118312031360
:1006D8002B082007AB002C0803182C0A2107AC00B4
:1006E8002B08A9002908BF004108303EA9002908A5
:1006F800C1004008303EA9002908C0003F08303E2C
:10070800A9002908BF00080083120313A501A11F2F
:100718008E2B8F2B962BA009A109A00A0319A10AD9
:10072800A501A50AA31F992B9A2BA32BA209A309FC
:10073800A20A0319A30A0130F5007508A506A60147
:10074800A701200821040319AA2BAB2BE22BA40133
:10075800A40AB92B01300310A00DA10DFF3E031D03
:10076800AF2B0130F5007508A407A11FBC2BBD2BCA
:10077800AE2B01300310A60DA70DFF3E031DBE2BA7
:1007880021082302031DCA2B20082202031CCD2B9B
:10079800CE2BD52B2008A2022108031CA303A302F9
:1007A800261401300310A10CA00CFF3E031DD62B0C
:1007B8000130A402031DE12BE22BBD2B25080319F0
:1007C800E62BE72BEC2BA609A709A60A0319A70A0B
:1007D8002708A1002608A000080000308312031390
:1007E800AB000030AA000030A9000030A8002308A0
:1007F8002204210420040319022C032C502CAC01E0
:10080800AC0A132C0130F5000310A00DA10DA20DA8
:10081800A30DF50B082C0130F5007508AC07A31FD4
:10082800162C172C062C0130F5000310A80DA90D65
:10083800AA0DAB0DF50B192C23082702031D2E2C2E
:1008480022082602031D2E2C21082502031D2E2C0A
:1008580020082402031C312C322C412C2008A4022D
:100868002108031C210FA5022208031C220FA6023F
:100878002308031C230FA702281401300310A30C1C
:10088800A20CA10CA00CFF3E031D422C0130AC02AF
:10089800031D4F2C502C172C2B08A3002A08A2004C
:1008A8002908A1002808A000080083120313AE013C
:1008B800AB1F5F2C602C672CAA09AB09AA0A031985
:1008C800AB0AAE01AE0AA91F6A2C6B2C702CA809C2
:1008D800A909A80A0319A90A280829040319752CC3
:1008E800762CA52CAD01AD0A842C01300310A80D7F
:1008F800A90DFF3E031D7A2C0130AC002C08AD0772
:10090800A91F872C882C792C29082B02031D8E2CD3
:1009180028082A02031C912C922C982C2808AA0239
:100928002908031CAB03AB0201300310A90CA80C67
:10093800FF3E031D992C0130AD02031DA42CA52CEC
:10094800882C2E080319A92CAA2CAF2CAA09AB09AC
:10095800AA0A0319AB0A2B08A9002A08A80008004C
:1009680083120313A6002603031DBB2CBC2CE12C09
:1009780023087F3EA4002408A9002908A400043005
:100988000310A40CFF3E031DC42C2408A500250851
:10099800A70029080F39A4002408A80027080A126C
:1009A8008A1127270A128A118312031328080A12A8
:1009B8008A1127270A128A110B2D02302606031DD9
:1009C800E62CE72C0B2D2308BF3EA4002408A90021
:1009D8002908A40004300310A40CFF3E031DEF2CCB
:1009E8002408A5002508A7002908F039A400240830
:1009F800A80027080A128A1127270A128A118312C7
:100A0800031328080A128A1127270A128A110800D4
:100A180000300A128A1179270A128A113430831297
:100A28000313A400F130A300A30B182DA40B182D59
:100A380030300A128A1127270A128A110D308312C0
:100A48000313A400FB30A300A30B282DA40B282D0F
:100A580030300A128A1127270A128A118430831229
:100A68000313A300A30B362D000030300A128A119D
:100A780027270A128A113C300A128A1127270A12DC
:100A88008A1108300A128A1127270A128A1101309E
:100A98000A128A1127270A128A1106300A128A11A5
:100AA80027270A128A11080083120313A501A60139
:100AB800200821040319612D622D992DA401A40A8F
:100AC800702D01300310A00DA10DFF3E031D662DF2
:100AD8000130F5007508A407A11F732D742D652D2D
:100AE80001300310A50DA60DFF3E031D752D21082D
:100AF8002302031D812D20082202031C842D852D2D
:100B08008C2D2008A2022108031CA303A30225148C
:100B180001300310A10CA00CFF3E031D8D2D0130E8
:100B2800A402031D982D992D742D2608A1002508CF
:100B3800A00008008316031385018601C0308700D2
:100B480088018901831203138901850186018701C0
:100B580088018316031788018901831603130F1769
:100B68008F160F160F1418121815831603178715EA
:100B7800CF308316031399009A0183120313981731
:100B8800181318168316031398168B170B170030B3
:100B980083120313B0000130AF008630AE00A030DE
:100BA800AD000A128A11DB250A128A1108002830C2
:100BB8008312031394008316031391018312031302
:100BC8002D08B1002E08B2002F08B3003008B40079
:100BD80002300310B10DB20DB30DB40DFF3E031D6D
:100BE800ED2D3408A3003308A2003208A100310813
:100BF800A0000030A7007A30A6001230A50000300F
:100C0800A4000A128A11F1230A128A11831203130B
:100C18002008FF3E831603139300940187150716D7
:100C2800080006308A000408840A82070034203449
:100C3800523448343A3420342034203454343A344A
:100C48002034203420344C3425343A3400344434AD
:100C580049345334503445344E34533441344E348B
:100C680044344F340034203443344F344D34493401
:100C7800443441342E342E342E3400342534203478
:100C880020342034003443342034203400342534D4
:100C98000034831203138C1E522E532E7C2E1A08F6
:100CA800F0007008F6007608031D5B2E5C2E7C2E83
:100CB8000C1E5F2E602E7C2E6A2E45089900F801C6
:100CC800F80A7A2E44089900F8017A2E7808F0007C
:100CD800F1017108003A0319722E7A2E7008003A51
:100CE8000319612E013A0319662E7A2E8C120C1202
:100CF80074088A0073088400720E8300FE0E7E0E4C
:100D080009000A128A1150270A128A11831603133E
:100D180091150A128A1150270A128A118312031395
:100D28001308A200A3012208A4002308A5000A12A0
:100D38008A1150270A128A118312031320032104EF
:100D4800031DA72EA82EAC2E831603139112AF2EC7
:100D58008316031391161116831203132508A10095
:100D68002408A000080083120313A600A401A5010B
:100D7800D22E2408260784000A128A1115260A1280
:100D88008A110A128A1107270A128A11013083125E
:100D98000313A4070318A50A0030A507240826078B
:100DA80084000A128A1115260A128A11003A031DB4
:100DB800DE2EDF2EBD2E080083120313A401A50129
:100DC800201CE72EE82EEE2E2208A4070318A50AF9
:100DD8002308A50701300310A20DA30DFF3E031D34
:100DE800EF2E01300310A10CA00CFF3E031DF62EC0
:100DF80020082104031D012F022FE42E2508A1003D
:100E08002408A000080083120313A1002108A000F1
:100E18002008A2002208A0002008A3000914230823
:100E28000A128A1179270A128A1183120313891464
:100E3800193083120313A000A00B202F232F831235
:100E480003138910080083120313A2000910220853
:100E58000A128A1179270A128A1183120313891434
:100E68000B3083120313A1006130A000A00B3A2FAE
:100E7800A10B3A2F3F2F831203138910080000306B
:100E88000A128A1127270A128A1101300A128A11B6
:100E980027270A128A110800831603131419552FDD
:100EA800562F502F11081F39031D5B2F5C2F502F11
:100EB80008000A128A1150270A128A118312031392
:100EC8002008930008000A128A1150270A128A1172
:100ED80083160313111508000A128A1150270A12E3
:100EE8008A118316031311140800F500750883127C
:060EF8000313880008004E
:04400E00D420FF3F7C
:00000001FF
