:100000000A128A11ED2F00308A000408840A820740
:1000100000342034523448343A34203420342034EC
:1000200054343A342034203420344C3425343A3497
:100030000034443449345334503445344E3453340A
:1000400041344E3444344F340034203443344F343C
:100050004D344934443441342E342E342E3400345B
:1000600025342034203420340034433420342034E8
:06007000003425340034C9
:10042600F000700883120313880008000A128A116C
:1004360035220A128A1183160313111408000A12B0
:100446008A1135220A128A11831603131115080020
:100456000A128A1135220A128A11700883120313AE
:10046600930008008316031314193A2A3B2A352AE7
:1004760011081F39031D402A412A352A0800003079
:100486000A128A114F220A128A1101300A128A119F
:100496004F220A128A110800F3008312031309106F
:1004A60073080A128A1113220A128A11831203137D
:1004B60089140B30F2006230F100F10B602AF20B66
:1004C600602A00008312031389100800F2007208E4
:1004D600F1007108F3007308F1007108F40083124B
:1004E6000313091474080A128A1113220A128A11B4
:1004F6008312031389141A30F100F10B802A0000CD
:100506008312031389100800F700F501F6019E2AED
:100516007508770784000A128A1103200A128A11C5
:100526000A128A1169220A128A110130F507031884
:10053600F60A0030F6077508770784000A128A1152
:1005460003200A128A11003A031DAA2AAB2A8B2A13
:100556000800F401F501701CB12AB22AB82A720803
:10056600F4070318F50A7308F50701300310F20DB6
:10057600F30DFF3E031DB92A01300310F10CF00CF8
:10058600FF3E031DC02A70087104031DCB2ACC2A26
:10059600AE2A7508F1007408F000080083160313EC
:1005A6008501860187018801890183120313890168
:1005B6008501860187018801831603178801890151
:1005C600831603130F178F160F160F148B170B179F
:1005D600003083120313B0000130AF008630AE0046
:1005E600A030AD000A128A1129230A128A110800C6
:1005F6000A128A1135220A128A11831603139115DB
:100606000A128A1135220A128A1183120313130859
:10061600F200F3017208F4007308F5000A128A1159
:1006260035220A128A1170037104031D1B2B1C2B21
:10063600202B831603139112232B83160313911673
:1006460011167508F1007408F000080028308312AE
:1006560003139400831603139101831203132D08C9
:10066600B1002E08B2002F08B3003008B4000230E3
:100676000310B10DB20DB30DB40DFF3E031D3B2BA0
:100686003408F3003308F2003208F1003108F000B4
:100696000030F7007A30F6001230F5000030F40032
:1006A6000A128A1199240A128A117008FF3E8316CB
:1006B600031393009401871507160800F501F60148
:1006C600700871040319682B692BA02BF701F70A30
:1006D600772B01300310F00DF10DFF3E031D6D2B3E
:1006E6000130F4007408F707F11F7A2B7B2B6C2B73
:1006F60001300310F50DF60DFF3E031D7C2B71082E
:100706007302031D882B70087202031C8B2B8C2B23
:10071600932B7008F2027108031CF303F30275149D
:1007260001300310F10CF00CFF3E031D942B013039
:10073600F702031D9F2BA02B7B2B7608F100750873
:10074600F000080000300A128A1113220A128A11D8
:100756003430F500F130F400F40BAF2BF50BAF2B72
:10076600B42B30300A128A114F220A128A110D3028
:10077600F500FB30F400F40BBE2BF50BBE2BC32BA0
:1007860030300A128A114F220A128A118530F4007B
:10079600F40BCB2B30300A128A114F220A128A111F
:1007A6003C300A128A114F220A128A1108300A12A4
:1007B6008A114F220A128A1101300A128A114F2217
:1007C6000A128A1106300A128A114F220A128A1157
:1007D6000800F7007703031DF12BF22B152C740884
:1007E6007F3EF5007508FA007A08F500043003101C
:1007F600F50CFF3E031DFA2B7508F6007608F80087
:100806007A080F39F5007508F90078080A128A1176
:100816004F220A128A1179080A128A114F220A12E5
:100826008A113D2C02307706031D1A2C1B2C3D2CF9
:100836007408BF3EF5007508FA007A08F500043022
:100846000310F50CFF3E031D232C7508F6007608F1
:10085600F8007A08F039F5007508F90078080A12E8
:100866008A114F220A128A1179080A128A114F2216
:100876000A128A11080083120313AE01FC1F442CCE
:10088600452C4C2CFB09FC09FB0A0319FC0AAE019A
:10089600AE0AFA1F4F2C502C552CF909FA09F90A01
:1008A6000319FA0A79087A0403195A2C5B2C8A2C44
:1008B600AD01AD0A692C01300310F90DFA0DFF3EAA
:1008C600031D5F2C0130FD007D08AD07FA1F6C2C5F
:1008D6006D2C5E2C7A087C02031D732C79087B0232
:1008E600031C762C772C7D2C7908FB027A08031CD6
:1008F600FC03FC0201300310FA0CF90CFF3E031D49
:100906007E2C0130AD02031D892C8A2C6D2C2E08FD
:1009160003198E2C8F2C942CFB09FC09FB0A031956
:10092600FC0A7C08FA007B08F90008000030FC008D
:100936000030FB000030FA000030F9007308720442
:10094600710470040319A82CA92CF62CFD01FD0ACC
:10095600B92C0130F8000310F00DF10DF20DF30D76
:10096600F80BAE2C0130F8007808FD07F31FBC2CFD
:10097600BD2CAC2C0130F8000310F90DFA0DFB0D5F
:10098600FC0DF80BBF2C73087702031DD42C7208DC
:100996007602031DD42C71087502031DD42C700831
:1009A6007402031CD72CD82CE72C7008F4027108AB
:1009B600031C710FF5027208031C720FF60273080E
:1009C600031C730FF702791401300310F30CF20CB9
:1009D600F10CF00CFF3E031DE82C0130FD02031D57
:1009E600F52CF62CBD2C7C08F3007B08F2007A0867
:1009F600F1007908F0000800F601F11F032D042D1F
:100A06000B2DF009F109F00A0319F10AF601F60AAD
:100A1600F31F0E2D0F2D182DF209F309F20A0319F3
:100A2600F30A0130F4007408F606F701F8017008BD
:100A3600710403191F2D202D572DF501F50A2E2DB2
:100A460001300310F00DF10DFF3E031D242D013082
:100A5600F4007408F507F11F312D322D232D0130D6
:100A66000310F70DF80DFF3E031D332D71087302B9
:100A7600031D3F2D70087202031C422D432D4A2D83
:100A86007008F2027108031CF303F30277140130B5
:100A96000310F10CF00CFF3E031D4B2D0130F50247
:100AA600031D562D572D322D760803195B2D5C2D0F
:100AB600612DF709F809F70A0319F80A7808F10011
:100AC6007708F00008007908FD007808FC0064301B
:100AD600F0000030F1007D08F3007C08F2000A12F5
:100AE6008A1161230A128A117008FA007A088312A1
:100AF6000313A8002808FA00FB017A08F0007B0817
:100B0600F1009C30F200FF30F3000A128A11AC2289
:100B16000A128A117C087007FC007D0803187D0AFA
:100B26007107FD000A30F0000030F1007D08F30087
:100B36007C08F2000A128A1161230A128A117008CF
:100B4600FA007A0883120313A7002708FA00FB01AC
:100B56007A08F0007B08F100F630F200FF30F3006F
:100B66000A128A11AC220A128A117C087007FC004C
:100B76007D0803187D0A7107FD007C08FA007A08D3
:100B860083120313A6002808303EFA007A08A8004C
:100B96002708303EFA007A08A7002608303EFA00F9
:100BA6007A08A60008000A128A11D1220A128A11AE
:100BB6000A128A11A5230A128A110A128A114222DE
:100BC6000A128A11F401F40A01300A128A11EC237E
:100BD6000A128A1101300A128A1187220A128A1110
:100BE6000A128A1119220A128A118130F000003085
:100BF600F1000A128A112B220A128A118312031398
:100C06002308031D072E082E192E0030F000F100D0
:100C16000A128A11FB220A128A1170088312031320
:100C2600B5003508A400A301A30A2D2E2303031D36
:100C36001D2E1E2E2D2E0030F000F1000A128A11F4
:100C4600FB220A128A11700883120313B5003508B5
:100C5600A500A3010A128A1122220A128A11033060
:100C660083120313B7000830B6007630B500B50B13
:100C76003A2EB60B3A2EB70B3A2E00000A128A11FC
:100C860019220A128A116130F0000030F1000A12AE
:100C96008A112B220A128A110030F000F1000A1282
:100CA6008A11FB220A128A11710883120313A1000A
:100CB6007008A0000A128A1122220A128A11033031
:100CC60083120313B7000830B6007630B500B50BB3
:100CD6006A2EB60B6A2EB70B6A2E0000F401F40AD0
:100CE60002300A128A11EC230A128A110A30F9001C
:100CF6000030FA000A30F0000030F10083120313CE
:100D06002508B500B6013508F2003608F3000A12C8
:100D16008A11FF240A128A117108FC007008FB0070
:100D26000A128A113E240A128A117908303E831269
:100D36000313B7003708AC000A30F9000030FA0098
:100D46002508B500B6013508FB003608FC000A1276
:100D56008A113E240A128A117908303E831203133F
:100D6600B7003708AB000A30F9000030FA000A3045
:100D7600F0000030F1002408B500B6013508F20095
:100D86003608F3000A128A11FF240A128A11710822
:100D9600FC007008FB000A128A113E240A128A110E
:100DA6007908303E83120313B7003708AA000A30C9
:100DB600F9000030FA002408B500B6013508FB003A
:100DC6003608FC000A128A113E240A128A11790892
:100DD600303E83120313B7003708A9002C080A1205
:100DE6008A1169220A128A11831203132B080A1226
:100DF6008A1169220A128A1128300A128A11872258
:100E06000A128A11831203132A080A128A11692206
:100E16000A128A118312031329080A128A116922F7
:100E26000A128A11DF300A128A1169220A128A11FD
:100E36002D300A128A1187220A128A11831203138D
:100E46002108F9002008F8000A128A1166250A12FC
:100E56008A118312031328080A128A1169220A12B8
:100E66008A118312031327080A128A1169220A12A9
:100E76008A118312031326080A128A1169220A129A
:100E86008A1131300A128A1187220A128A118312B4
:100E960003132108803AFF0080307F02031D552F7F
:100EA600623020020318582F592F772F831203130D
:100EB600A201A20A0514063083120313B6002F30CE
:100EC600B500B50B642FB60B642F692F831203137D
:100ED6000510343083120313B600F130B500B50B9C
:100EE600722FB60B722FF32D643083120313200674
:100EF6002104031D7F2F802FF32DA201051403303B
:100F060083120313B6009730B500B50B882FB60BC6
:100F1600882F831203130510343083120313B6008F
:100F2600F130B500B50B952FB60B952F0A128A1125
:100F360042220A128A11F401F40A01300A128A11B5
:100F4600EC230A128A1111300A128A1187220A1218
:100F56008A11F401F40A02300A128A11EC230A12E9
:100F66008A111D300A128A1187220A128A11333019
:100F760083120313B700BB30B600DF30B500B50BE4
:100F8600C22FB60BC22FB70BC22F0A128A114222EA
:100F96000A128A11F401F40A01300A128A11EC23AA
:100FA6000A128A1101300A128A1187220A128A113C
:100FB600063083120313B7001330B600AD30B50008
:100FC600B50BE32FB60BE32FB70BE32FF32D0A1266
:100FD6008A11002883120313A001A101A201A30113
:100FE600A401A501A601A701A801A901AA01AB01B7
:0A0FF600AC0183010A128A11D62D06
:04400E00D420FF3F7C
:00000001FF
