:100000000A128A11F42F00308A000408840A820739
:1000100000342034533431343A3420342034203402
:10002000533432343A34203420342034533433348B
:100030003A3400342534203420342034003443341E
:100040002034203400343034303430340034B03490
:0200500000347A
:10082800F000700883120313880008000A128A1166
:1008380036240A128A1183160313111408000A12A7
:100848008A1136240A128A11831603131115080017
:100858000A128A1136240A128A11700883120313A5
:10086800930008008316031314193B2C3C2C362CD8
:1008780011081F39031D412C422C362C080000306A
:100888000A128A1150240A128A1101300A128A1196
:1008980050240A128A110800F30083120313091066
:1008A80073080A128A1114240A128A118312031374
:1008B80089140B30F2006230F100F10B612CF20B5D
:1008C800612C00008312031389100800F2007208DB
:1008D800F1007108F3007308F1007108F400831245
:1008E8000313091474080A128A1114240A128A11AB
:1008F8008312031389141A30F100F10B812C0000C4
:100908008312031389100800F700F501F6019F2CE4
:100918007508770784000A128A1103200A128A11BF
:100928000A128A116A240A128A110130F50703187B
:10093800F60A0030F6077508770784000A128A114C
:1009480003200A128A11003A031DAB2CAC2C8C2C04
:1009580008000A128A1136240A128A118316031310
:1009680091150A128A1136240A128A118312031366
:100978001308F200F3017208F4007308F5000A1274
:100988008A1136240A128A1170037104031DCD2CB2
:10099800CE2CD22C831603139112D52C8316031355
:1009A800911611167508F1007408F0000800283037
:1009B8008312031394008316031391018312031304
:1009C8002008A4002108A5002208A6002308A700E3
:1009D80002300310A40DA50DA60DA70DFF3E031DA3
:1009E800ED2C2708F3002608F2002508F10024085A
:1009F800F0000030F7007A30F6001230F5000030D1
:100A0800F4000A128A1147260A128A117008FF3E5A
:100A18008316031393009401871507160800013005
:100A280083160313850086018701880189018312D3
:100A38000313890185018601870188010130831626
:100A4800031788008901831603130F178F160F16D3
:100A58000F149F131F129F12831203131F083F398D
:100A680080389F00C3309F051F1420308312031362
:100A7800A800A80B3D2D0000831203139F148B17A9
:100A88000B170030A3000130A2008630A100A0306F
:100A9800A0000A128A11DB240A128A110800003009
:100AA8000A128A1114240A128A113430F500F1301E
:100AB800F400F40B5D2DF50B5D2D622D30300A121C
:100AC8008A1150240A128A110D30F500FB30F40007
:100AD800F40B6C2DF50B6C2D712D30300A128A1128
:100AE80050240A128A118530F400F40B792D303025
:100AF8000A128A1150240A128A113C300A128A11E9
:100B080050240A128A1108300A128A1150240A1233
:100B18008A1101300A128A1150240A128A110630E9
:100B28000A128A1150240A128A110800F700770362
:100B3800031D9F2DA02DC32D74087F3EF500750859
:100B4800FA007A08F50004300310F50CFF3E031D87
:100B5800A82D7508F6007608F8007A080F39F50010
:100B68007508F90078080A128A1150240A128A11A5
:100B780079080A128A1150240A128A11EB2D0230C0
:100B88007706031DC82DC92DEB2D7408BF3EF5004F
:100B98007508FA007A08F50004300310F50CFF3EDA
:100BA800031DD12D7508F6007608F8007A08F0398B
:100BB800F5007508F90078080A128A1150240A12FB
:100BC8008A1179080A128A1150240A128A11080017
:100BD80083120313A101FC1FF22DF32DFA2DFB093B
:100BE800FC09FB0A0319FC0AA101A10AFA1FFD2D41
:100BF800FE2D032EF909FA09F90A0319FA0A7908E8
:100C08007A040319082E092E382EA001A00A172EDF
:100C180001300310F90DFA0DFF3E031D0D2E0130B2
:100C2800FD007D08A007FA1F1A2E1B2E0C2E7A082D
:100C38007C02031D212E79087B02031C242E252EFD
:100C48002B2E7908FB027A08031CFC03FC020130F6
:100C58000310FA0CF90CFF3E031D2C2E0130A002E4
:100C6800031D372E382E1B2E210803193C2E3D2E2E
:100C7800422EFB09FC09FB0A0319FC0A7C08FA004E
:100C88007B08F90008000030FC000030FB00003051
:100C9800FA000030F9007308720471047004031933
:100CA800562E572EA42EFD01FD0A672E0130F8009E
:100CB8000310F00DF10DF20DF30DF80B5C2E013061
:100CC800F8007808FD07F31F6A2E6B2E5A2E0130A4
:100CD800F8000310F90DFA0DFB0DFC0DF80B6D2E45
:100CE80073087702031D822E72087602031D822E76
:100CF80071087502031D822E70087402031C852E6C
:100D0800862E952E7008F4027108031C710FF502E7
:100D18007208031C720FF6027308031C730FF702A4
:100D2800791401300310F30CF20CF10CF00CFF3EB7
:100D3800031D962E0130FD02031DA32EA42E6B2E3B
:100D48007C08F3007B08F2007A08F1007908F000CB
:100D58000800F601F11FB12EB22EB92EF009F109E3
:100D6800F00A0319F10AF601F60AF31FBC2EBD2E8C
:100D7800C62EF209F309F20A0319F30A0130F40046
:100D88007408F606F701F801700871040319CD2EEE
:100D9800CE2E052FF501F50ADC2E01300310F00DDB
:100DA800F10DFF3E031DD22E0130F4007408F50743
:100DB800F11FDF2EE02ED12E01300310F70DF80DB4
:100DC800FF3E031DE12E71087302031DED2E70080E
:100DD8007202031CF02EF12EF82E7008F202710830
:100DE800031CF303F302771401300310F10CF00C29
:100DF800FF3E031DF92E0130F502031D042F052FB8
:100E0800E02E76080319092F0A2F0F2FF709F80982
:100E1800F70A0319F80A7808F1007708F0000800C3
:100E28000A128A1113250A128A110A128A115325E5
:100E38000A128A110A128A1143240A128A11F40129
:100E4800F40A01300A128A119A250A128A1101300D
:100E58000A128A1188240A128A110A128A111A247B
:100E68000A128A118130F0000030F1000A128A114A
:100E78002C240A128A110030F000F1000A128A119B
:100E8800AD240A128A11700883120313A9002908D5
:100E9800AC000A128A1123240A128A110330831221
:100EA8000313AB000830AA007630A900A90B5A2F0B
:100EB800AA0B5A2FAB0B5A2F0000F401F40A023088
:100EC8000A128A119A250A128A11303083120313E2
:100ED800A9002908B1003030A9002908B0000A305B
:100EE800F9000030FA000A30F0000030F1002C0858
:100EF800A900AA012908F2002A08F3000A128A1197
:100F0800AD260A128A117108FC007008FB000A124B
:100F18008A11EC250A128A117908303E83120313CC
:100F2800AB002B08AF000A30F9000030FA002C089B
:100F3800A900AA012908FB002A08FC000A128A1144
:100F4800EC250A128A117908303E83120313AB008C
:100F58002B08AE0030300A128A116A240A128A114C
:100F680030300A128A116A240A128A1112300A12BF
:100F78008A1188240A128A11831203132F080A126D
:100F88008A116A240A128A11831203132E080A127C
:100F98008A116A240A128A111F300A128A116A24D5
:100FA8000A128A1117300A128A1188240A128A1121
:100FB8001B300A128A1188240A128A110B308312F4
:100FC8000313AB002630AA005D30A900A90BEA2F55
:100FD800AA0BEA2FAB0BEA2F312F0A128A1100282D
:100FE80083120313AC01AD01AE01AF01B001B10131
:080FF80083010A128A11142F73
:04400E00D420FF3F7C
:00000001FF
